:020000040800F2
:10000000F8050020ED010008A7310008E52B0008E5
:10001000A53100089D090008C53E00080000000049
:100020000000000000000000000000005B34000839
:10003000150A000800000000593400085D3400086B
:10004000070200080702000807020008070200086C
:10005000070200080702000807020008070200085C
:10006000070200080702000807020008070200084C
:10007000070200080702000807020008070200083C
:10008000070200080000000007020008070200083D
:10009000070200080702000807020008070200081C
:1000A000070200080702000807020008070200080C
:1000B00007020008070200080702000807020008FC
:1000C00007020008070200080702000807020008EC
:1000D00007020008070200080702000807020008DC
:1000E00007020008070200080702000807020008CC
:1000F00007020008070200080702000800000000CD
:1001000000000000070200080000000007020008CD
:1001100007020008000000000702000807020008AC
:10012000070200080702000807020008070200088B
:10013000070200080000000000000000070200089D
:10014000070200080702000800000000000000008D
:10015000000000000000000000000000000000009F
:10016000000000000000000000000000070200087E
:10017000070200080000000000000000000000006E
:10018000000000000702000800000000000000005E
:10019000000000000000000000000000000000005F
:1001A000000000000000000007020008070200082D
:1001B000070200080702000807020008000000000C
:1001C000000000000702000800000000000000001E
:1001D0000702000807020008DFF80CD000F05CFA04
:1001E0000048004791490008F8050020064880476C
:1001F00006480047FEE7FEE7FEE7FEE7FEE7FEE70C
:10020000FEE7FEE7FEE7FEE7C9340008D901000873
:100210002DE9F05F0546002092469B46884606463B
:10022000814640241BE0284641464746224600F0CE
:100230006AF853465A46C01A914110D311461846DF
:10024000224600F051F82D1A67EB01084F4622466E
:100250000120002100F048F817EB00094E41201E54
:10026000A4F10104DFDC484631462A464346BDE896
:10027000F09FD2B201E000F8012B491EFBD270477B
:100280000022F6E710B513460A4604461946FFF762
:10029000F0FF204610BD00F0004230F000400AD0D0
:1002A000C10D01F56071C0F3160042EA0151C208A8
:1002B00040071143704700200146704730B50B4698
:1002C000014600202022012409E021FA02F59D4286
:1002D00005D303FA02F5491B04FA02F52844151E5A
:1002E000A2F10102F1DC30BD202A04DB203A00FA41
:1002F00002F1002070479140C2F1200320FA03F37D
:10030000194390407047202A04DB203A21FA02F07A
:100310000021704721FA02F3D040C2F1200291403F
:100320000843194670472DE9FE4F804681EA0300D5
:10033000C00F0C46009021F0004123F00045B8EBBF
:100340000200A94105D24046214690461C460B4674
:10035000024623F00040104347D0270DC7F30A00A0
:10036000C3F30A510290401A019040286BDAC3F39C
:10037000130040F4801B0098924620B10023D2EB7A
:10038000030A63EB0B0B01985946C0F1400250463B
:10039000FFF7AAFF06460D4650465946019A00F05F
:1003A0008DF910EB08006141002487EA115284EABC
:1003B000E7731A4340D0009A62B3019A012A4FEAC8
:1003C000075215DC001B61EB02014FF0004202EA0C
:1003D0000752CDE90042001C41F5801132462B4600
:1003E00000F08DF903B0BDE8F08F40462146F9E7F3
:1003F000001B61EB0201001C41F5801300185B41FA
:100400002018A2F5001747EB030140EAD570B61992
:100410006D4111E06D084FEA360645EAC0754FEAB6
:100420000752001B61EB0201001C41F580114908D5
:100430004FEA30000019514132462B4603B0BDE867
:10044000F04F00F04DB90098012240000023D0EB9E
:10045000020263EBE073009821464FEAE074B8EBC8
:10046000000061EB0401E9E783F000435BE781F002
:10047000004158E72DE9FE4F81EA030404F00044EF
:1004800021F0004100944FF0000B23F0004350EAAC
:1004900001045ED052EA03045BD0C3F30A54C1F3F3
:1004A0000A552C44A4F2F3340194A0FB0254C1F386
:1004B000130141F48011C3F3130343F4801301FBD0
:1004C000024400FB034E840A970A44EA815447EA37
:1004D0008357A4FB076802958D0A05FB07854FEA41
:1004E000932C04FB0C542705029D4FEA065847EA5B
:1004F0001637B5EB08056EEB070C870E920E47EA30
:10050000811742EA8312A7FB0201B6EB0B0164EBF1
:1005100000042B0D43EA0C335E1844EB1C50DA4602
:100520005146E7FB0201C5F313044FEA0B3343EADC
:1005300014534FEA0432019C43EA0603A4F10C046D
:100540000294009CCDE900B400F0D9F803B0BDE8F6
:10055000F08F00200146F9E72DE9F04D81EA030410
:1005600004F0004B21F0004514464FF0000A23F040
:10057000004150EA050220D054EA01021DD0C5F323
:100580000A570246C5F31303C1F31300C1F30A5619
:1005900040F4801543F48013A7EB0608101BD646E1
:1005A00008F2FD3873EB050002D308F1010801E001
:1005B00092185B41B8F1000F03DA00200146BDE854
:1005C000F08D00204FF48011064684460EE0171B84
:1005D00073EB050705D3121B63EB050306434CEAD7
:1005E000010C49084FEA300092185B4150EA0107BC
:1005F000EDD152EA030012D082EA040083EA050139
:10060000084305D0101BAB4106D20122002306E0AF
:1006100000224FF0004302E06FF0010253101AEB8A
:1006200006004CEB085110EB0A0041EB0B01BDE852
:10063000F04D00F055B8C1F30A52C1F3130140F276
:10064000FF3341F480119A4202DA002001467047DC
:1006500040F233439A42A2F2334202DC5242FFF7A5
:1006600052BEFFF741BE000030B5041E71F1000418
:1006700004DB4FF00044404264EB0101141E73F1AF
:10068000000405DB1C464FF00043524263EB0403B9
:10069000994208BF904230BD064C074D06E0E06825
:1006A00040F0010394E8070098471034AC42F6D3B9
:1006B000FFF796FDDC4B0008FC4B0008202A06DB08
:1006C000CB17203A41FA02F043EAE07306E041FA20
:1006D00002F3D040C2F1200291400843194670470E
:1006E00010B5141E73F1000408DA401C41F100013A
:1006F00092185B411A4301D120F0010010BD2DE991
:10070000F04D92469B4611B1B1FA81F202E0B0FA87
:1007100080F220329046FFF7E7FD04460F4640EA9C
:100720000A0041EA0B0153465A46084313D01146CA
:1007300053EA010019D0C8F140025046FFF7E3FD2B
:1007400005460E46504659464246FFF7CDFD084342
:1007500005D0012004E020463946BDE8F08D002098
:10076000054346EAE0762C4337430A986305E40ADA
:10077000A0EB08000022FD0A44EA47540A3002D5E3
:1007800000200146E9E7010510196941DDE9084546
:1007900000196941BDE8F04DA2E700002DE9F041E4
:1007A000044600270D46006802F09DFB06462068BF
:1007B00002F095FB30435DD02068C1682E4E890160
:1007C00005D5617F012902D1217F01290BD0022D9E
:1007D0001DD0206802F087FBB8B120688168C1F3A2
:1007E000400169B111E00125244902E08F4232D273
:1007F0007F1C0268D2435206F8D440210160E8E72A
:100800008168314041F010018160012D11D02068D4
:1008100002F065FB48B120688168C1F3400121B94D
:100820008168314041F020018160022D08D0032D04
:1008300004D0042500F03CFF064617E00C25F9E73C
:100840000825F7E700F034FF801B05280ED9206843
:10085000806828420AD0E06D40F01000E065206E0C
:1008600040F0010020660120BDE8F081206880682A
:100870002842E7D10020F7E7C0FFFF7F000040A338
:1008800070B50446006881688268C1F3400112F0C7
:10089000010F28D039BB816801F00D01012914D165
:1008A0008168124A1140891C816021680320086018
:1008B00000F0FEFE054612E000F0FAFE401B0228A2
:1008C0000DD920688068C00709D0E06D40F01000A5
:1008D000E065206E40F001002066012070BD2068B8
:1008E0008068C007E8D1002070BD0000C0FFFF7F16
:1008F000F8B50446002000902068816811F0010FCF
:1009000041D18168214A11422ED18168D5432940C5
:10091000491C81601E48806800F0E07000020DD51F
:100920001C481D490068B0FBF1F0401C00EB400082
:10093000800000E0401E00900028FBD100F0B8FECF
:1009400006461BE0816811F0010F03D18168294040
:10095000491C816000F0ACFE801B02280ED9206883
:100960000068C043C00709D0E06D40F01000E065AA
:10097000206E40F0010020660120F8BD206801686B
:10098000C943C907DED10020F8BD00003F00008048
:100990000003005018000020400D0300FEE7000097
:1009A00010B518B14FF6FF71884202D39FED130ABC
:1009B00010BD00EE100A9FED121ADFED120AB8EE1C
:1009C000400A60EE011A00EE100AB8EE400A30EE5E
:1009D000C00AC1EE800A80EE810A03F099FA9FED09
:1009E0000A1ADFED0A0A40EE010AB7EE001A81EE9C
:1009F000200ADFED070A30EE600A10BD0000C6C213
:100A000000401C4600FF7F472CBB84390FCF5B3B67
:100A100033938843704772B6FEE70000F8B50026AE
:100A20000446009690F858000D4601280BD001208E
:100A300084F858002046FFF723FF0100E06D04D042
:100A400040F010002AE00220F8BD20F4885040F069
:100A50000200E06520688268134B1A4005F080436D
:100A60001A4342F000428260104A20680EE0009B68
:100A70005B1C0093934209D3E06D20F0020040F02C
:100A80001000E06584F858600120F8BD8368DB0F32
:100A9000EDD1E06D20F0020040F00100E06584F847
:100AA00058600846F8BD0000C0FFFF3F02DE0400AA
:100AB0002DE9F047044690F858009CB00E464FF0E0
:100AC0000009012815D0012084F858000025179549
:100AD000189520684FF0A04840450ED1284F009748
:100AE000384602F004FA8246206802F000FA60B14B
:100AF0000EE002201CB0BDE8F087E06D40F0200061
:100B0000E06584F858500120F4E7BAF1000F09D0ED
:100B1000E06D40F02000E0654FF0010984F8585086
:100B20004846E7E71748326840F61F71002A826896
:100B300022F4604216D094F8383042EA43327368A7
:100B40001A438260D8F80820BB6802F0010203F063
:100B500001031A43E2D1B36832681A4383688B43B6
:100B60001A430BE08260D8F80820BB6802F001024B
:100B700003F001031A43D1D182688A438260CDE732
:100B800000010050000300502DE9F84F00270446F3
:100B9000009790F85800DFF8E0930D46B84601281A
:100BA00011D0012684F85860206802F09CF960B1E9
:100BB000E06D40F02000E0655FF0010784F85880A8
:100BC0003846BDE8F88F0220FBE7D5E900210C2369
:100BD000206803EA91131844036B01F01F014FF0E2
:100BE0001F0C0CFA01FCC2F3846223EA0C038A4056
:100BF00013430363206802F076F98246206802F00E
:100C00006EF95AEA00003CD1AA6829682068B2F15E
:100C1000004F37D002F077F92068416921F0004198
:100C2000416120686969C268C2F3C1025200914003
:100C30002A69042A31D000EB82002B68026EDFF8AB
:100C40003CC303F0F84302EA0C020B431A4342F0A0
:100C50000041016620682A69A96900EB8200026EE2
:100C600022F080720A430266297F226828690129DE
:100C700010D0002102EB8000026E22F000720A43C5
:100C800002667DE0002202F03EF92068416941F0F1
:100C90000041C5E74FF00071ECE7002102F019F9BF
:100CA000400320684FF0000172D002F012F990FA70
:100CB000A0F0B0FA80F1286842036ED090FAA0F05C
:100CC000B0FA80F0814204D100221146206802F07F
:100CD00029F90121206802F0FCF8400320684FF058
:100CE00001015DD002F0F5F890FAA0F0B0FA80F1C1
:100CF0002868420359D090FAA0F0B0FA80F08142FF
:100D000004D100220121206802F00CF902212068A0
:100D100002F0DFF8400320684FF0020148D002F0F3
:100D2000D8F890FAA0F0B0FA80F12868420344D0D5
:100D300090FAA0F0B0FA80F0814204D100220221A2
:100D4000206802F0EFF80321206802F0C2F84003A7
:100D500020684FF0030133D002F0BBF890FAA0F006
:100D6000B0FA80F1286842032FD090FAA0F0B0FAD0
:100D700080F0814204D100220321206802F0D2F8E1
:100D80002068816811F0010F22D0ACE000E004E09F
:100D900002F09FF8C0F384618DE7C0F3846091E7AF
:100DA00002F097F8C0F38461A2E7C0F38460A6E77D
:100DB00002F08FF8C0F38461B7E7C0F38460BBE74B
:100DC00002F087F8C0F38461CCE7C0F38460D0E719
:100DD0002A7B296850F8B03FC1F3120C23EA0C03B8
:100DE00002F0180C664A22FA0CF20A401343036020
:100DF000E968494577D1286841031CD090FAA0F1F1
:100E0000B1FA81F1491C01F01F0109294FEA403173
:100E100032D8002912D000BF90FAA0F1B1FA81F1C6
:100E200001F1010101F01F0106FA01F609D100BF2D
:100E3000C0F3846109E0C0F38461E3E7C0F3846137
:100E4000EEE790FAA0F1B1FA81F101F1010101F0B0
:100E50001F0146EA816102D1C0F3846003E090FA89
:100E6000A0F0B0FA80F000F1010000F01F0000EBEC
:100E7000400041EA005132E000290ED090FAA0F182
:100E8000B1FA81F101F1010101F01F0106FA01F649
:100E900006D100BFC0F3846106E0C0F38461F1E7CE
:100EA00090FAA0F1B1FA81F101F1010101F01F0105
:100EB00046EA816102D1C0F3846003E090FAA0F0B9
:100EC000B0FA80F000F1010000F01F002D4A00EBA5
:100ED000400002EB005041EA000141F00071AA68B5
:100EE000206802F010F828482A6802423FF466AEF3
:100EF00026488168264B01F0E0719A4202D0254BCA
:100F00009A421CD10B021AD42268B2F1A04F7FF48E
:100F100055AE826841F4000122F0E0720A4382601B
:100F20001D481E490068B0FBF1F0401C00EB40007A
:100F3000800000E0401E00900028FBD13EE6184DE6
:100F4000184BAA4207D1CD0105D422689A42F5D0A8
:100F500041F0807109E0144DAA42EFD14A02EDD46C
:100F600022689A42EAD041F48001826822F0E0725D
:100F70000A43826022E6000000007F4000F0FF0389
:100F8000FFFF0700000020FE000008800003005063
:100F9000000021C31000C09018000020400D030085
:100FA000000052C700010050000084CB0068006CB4
:100FB00070470000F8B54FF0000504002E4600957C
:100FC00002D0E06D10B107E00120F8BD204600F02E
:100FD000EBF8266684F8586020688168C1F3407198
:100FE00019B18168684A1140816020688168C1F345
:100FF000007189B98168654A114041F08051816072
:10100000634864490068B0FBF1F04000801C00E0D8
:10101000401E00900028FBD120688168C1F3007158
:1010200041B9E16D41F01001E165216E41F001012E
:101030002166012501F057FFE16DC90600D430B1EA
:10104000E06D40F01000E06501252846F8BDE06D38
:1010500020F4807040F00200E0652068806810F0A5
:10106000010F11D14FF0A04080684B4900F0010002
:10107000896801F00101084306D148486168826827
:1010800022F47C120A438260E168E06B627F0843CD
:10109000A16841EA4231084394F8241040EA014033
:1010A000012904D1218D3E4A02EB41410843E16A06
:1010B00029B101F47871226B014342EA01002268F0
:1010C000D168384B19400143D16020680169626BD7
:1010D00021F0406111430161206801F000FF70BB05
:1010E000207F94F83810800340EA41022168C868E4
:1010F00044F2020398431043C86020690028206826
:1011000001690AD041F480310161206850F8C01FA4
:1011100022696FF30D01114307E021F48031016171
:10112000206850F8C01F6FF30D01016094F8400073
:1011300001280CD02068016921F00101016160697A
:1011400001282068016B21F00F0111D013E0D4E9D0
:1011500011010843D4E913121143084321680A69B5
:1011600040F2FC739A43104340F001000861E6E747
:10117000226A521E11430163E06D20F0020040F02C
:101180000100E06561E70000C0FFFF5FC0FFFF7F77
:1011900018000020400D0300000100500003005023
:1011A0000000FEFF0740F0FF10B598B00446142180
:1011B00011A8FFF765F844216846FFF761F8206839
:1011C000B0F1A04F26D14FF40040009080030F9063
:1011D000684600F00DFD08B1FFF71DFC0E48C16C1C
:1011E00041F40051C164C16C01F400511691C16C0D
:1011F00041F00101C164C06C11A900F0010016901A
:101200000120119003201290002013904FF0904085
:1012100000F02EF918B010BD001002402DE9F04189
:1012200004463B480F46816801F01F05A169082963
:101230000FD085B1052D0ED0092D0CD0806800F49B
:10124000604060B1E06D40F02000E0650120BDE845
:10125000F081082604E02068C068C007F1E7042692
:1012600000F026FA804615E0781C13D000F020FA32
:10127000A0EB0800B84200D867B920680068304287
:1012800008D1E06D40F00400E065002084F85800CB
:101290000320DCE7206800683042E5D0E06D40F4D0
:1012A0000070E065206801F026FE80B1607F70B9B3
:1012B0002068006800070AD5E06D20F48070E065C2
:1012C000E06DC00403D4E06D40F00100E065114A18
:1012D00020684FF0A041904201D10B4600E0034648
:1012E000834210D07DB1052D0DD0092D0BD0904239
:1012F00000D00146C968082E07D0490401D40C214A
:1013000001600020A3E7C168F5E70821F8E70000C5
:1013100000030050000100502DE9F0410446384818
:10132000806800F01F05206801F0DDFD18B1022182
:101330000846BDE8F08194F8580001280CD001203F
:1013400084F858002046FFF7D3FA01004FF000035D
:1013500004D084F85830EBE70220EAE7E06D40F66D
:101360000162904340F48070E065264A20684FF0A7
:10137000A046904201D1374600E00746874200D0A0
:101380001DB9E76D27F48017E765E76DFF0404D505
:10139000276E27F00607276600E023661C270760F4
:1013A00084F858302068904201D1334600E003466B
:1013B000834215D0A5B1052D12D0092D10D0E36DB3
:1013C00043F48013E365904200D13046C068800149
:1013D000AED5E06D20F4005040F48050E065A7E702
:1013E000C268920105D5E26D22F4005242F48052A7
:1013F000E2658268044B1A40121D826098E7000083
:101400000003005000010050C0FFFF7F10B50446EC
:1014100090F85800012808D0012084F858000321D2
:101420002046FFF7BBF910B10BE0022010BD2046AB
:10143000FFF726FA28B9E16D21F4885141F0010146
:10144000E165002184F8581010BD000070B5044615
:1014500000F02EF90546601C02D0044840680444A0
:1014600000F026F9401BA042FAD370BD0C0000200A
:101470002DE9F04FDFF80C92002301260325A9F196
:10148000040B85B00F2709F1040AABF1040EF1E05B
:1014900006FA03FC12EA0C027ED00C7904F0030475
:1014A000012C01D0022C20D1846800945C0005FA44
:1014B00004F80494009C24EA08040094D1F80C80F9
:1014C000049C08FA04F8009C48EA0408C0F8088064
:1014D000446824EA0C0491F804C0CCF3001C0CFA14
:1014E00003FC4CEA040CC0F804C00C79E443A407E4
:1014F00002D18C68012C0ED0C4684FEA430805FA6B
:1015000008FC24EA0C04D1F808C00CFA08FC4CEAE8
:10151000040CC0F80CC00C7904F00304022C16D1A2
:10152000DC0800EB840CCDF808C0DCF820C05C07B8
:101530004FEAD46807FA08F42CEA040C0C6904FAA0
:1015400008F444EA0C04DDF808C0CCF82040046834
:101550004FEA430805FA08FC24EA0C0491F804C099
:101560000CF0030C0CFA08FC4CEA040CC0F800C0A8
:101570004C6814F4403F7CD0434CD4F860C04CF02D
:10158000010CC4F860C0246E23F0030C04F00104C5
:1015900000943E4C644400E06BE00294A4684FEA7F
:1015A000837C4FEA1C7807FA08FC24EA0C04B0F1AB
:1015B000904F06D0DFF8D8C0604505D14FF0010C40
:1015C00020E04FF0000C1DE0DFF8C8C0604502D1FC
:1015D0004FF0020C16E0DFF8C0C0604502D14FF0BA
:1015E000030C0FE0DFF8B4C0604502D14FF0040CEB
:1015F00008E0DFF8ACC0604502D14FF0050C01E017
:101600004FF0060C0CFA08FC4CEA040C029CC4F8DF
:1016100008C0D9F80040CC46D1F8048094435FEA72
:10162000C82800D51443CCF80040DAF80040D4466E
:10163000D1F8048094435FEA882800D51443CCF89D
:101640000040DBF80040DC46D1F8048094435FEAB8
:10165000883800D51443CCF80040DEF80040F4464A
:10166000D1F8048094435FEAC83800D51443CCF81D
:1016700000405B1C0C682246DC407FF409AF05B0DB
:10168000BDE8F08F08040140001002400000014056
:101690000004004800080048000C00480010004802
:1016A000001400480AB181617047816270470000F0
:1016B00001488068704700000C00002090F841202D
:1016C000202A24D190F84020012A20D0012280F83D
:1016D0004020242280F841200268136823F001038F
:1016E00013600268136823F4805313600268136860
:1016F0000B43136001680A6842F001020A6020216E
:1017000080F84110002180F8401008467047022000
:10171000704790F84120202A22D190F84020012AD9
:101720001ED0012280F84020242280F84120026847
:10173000136823F0010313600268136823F47063D5
:1017400043EA0121116001680A6842F001020A605F
:10175000202180F84110002180F840100846704791
:101760000220704770B5040004D094F841000025B1
:1017700010B106E0012070BD84F84050204600F012
:10178000FBF8242084F841002068016821F0010161
:1017900001606068216820F07060086120688168DD
:1017A00021F400418160E0680128A06830D040F455
:1017B000044021688860E0680228206841682AD0D7
:1017C00021F40061416020684168144A114341607E
:1017D0002068C16821F40041C160D4E904010843D4
:1017E000A16940EA01202168C860D4E907010843E3
:1017F000216808602068016841F0010101606564AA
:10180000202084F84100256384F84250002070BDF8
:1018100040F40040CDE741F40061D3E700800002CE
:101820002DE9FF4F83B00446DDE9108790F84100B1
:10183000DDF848909A469346202871D15FEA080067
:1018400014D09FB194F84000012869D0012084F899
:101850004000FFF72DFF0646012200901923D10317
:10186000204601F0A1FA00286ED103E04FF4007089
:10187000606469E0212084F84100402084F842003F
:1018800000256564C4F8248067856563CDE900960A
:1018900053465A462046049901F03CFA10B184F8A8
:1018A000405051E0608DFF274FF080784FF0007A74
:1018B000FF2804D927853A464346009505E0608D08
:1018C0002085009594F8282053462046049901F07D
:1018D00053FA32464946204601F0CEFAA0BB606A70
:1018E000216800788862606A401C6062608D401EDA
:1018F0006085208D401E80B22085618DD9B1D0B920
:101900004B46002280212046009601F04DFAD8B9BE
:10191000608DFF2805D927853A464346009506E0A5
:1019200026E0608D2085009594F8282053462046B7
:10193000049901F021FA608D0028CAD13246494647
:10194000204601F06EFA18B1012007B0BDE8F08F13
:1019500020682021C16120684268064B1A4042601D
:1019600084F8411084F8425084F840500020ECE79D
:101970000220EAE700E800FEF0B597B00446142123
:1019800011A8FEF77DFC44216846FEF779FC20494A
:101990002068884239D1402000250090069568468D
:1019A00000F026F908B1FFF736F81A4CE06C40F069
:1019B0000100E064E06C00F001001690E06C40F083
:1019C0000200E064E06C122600F00200169004278A
:1019D0004FF40040CDE91265CDE91457119011A9DB
:1019E000B006FFF745FD8020CDE91265CDE914571B
:1019F000119011A90848FFF73BFDA06D40F40010BD
:101A0000A065A06D00F40010169017B0F0BD0000A6
:101A10000054004000100240000400480248816861
:101A200042681144816070470C00002010B500240A
:101A3000032000F065F80F2000F008F808B1012439
:101A400001E000F025F8204610BD000070B50E4EF4
:101A500005460024706898B14FF47A71B1FBF0F03C
:101A60000A490968B1FBF0F000F050FD40B9102DB3
:101A700006D200222946501E00F022F8356000E010
:101A80000124204670BD00000C000020180000203A
:101A90000A4882B0016E41F001010166016E01F059
:101AA00001010091816D41F080518165806D00F0F0
:101AB0008050009002B000F093B800000010024087
:101AC000F0B40E4B1B680C46C3F30223C3F10705A9
:101AD000042D00D90425191D072901D2002300E097
:101AE000DB1E012606FA05F1491E214099409E4061
:101AF000761E16403143F0BC02F0FAB90CED00E05E
:101B0000064900F0070208684FF6FF03184040EA54
:101B10000220034A10430860704700000CED00E00B
:101B20000000FA052B492C4B0A6832214A432B4905
:101B300040B1B0F5007F086829D020F4C06040F4BF
:101B400080602CE00868C0F34120022804D051F8DE
:101B5000800F20F4807022E0D1F8800020F48070A3
:101B6000C1F88000086820F4C06040F4007008608C
:101B7000B2FBF3F0401C00E0401E4A69520501D55B
:101B80000028F9D1486940050AD503207047C0F301
:101B90004120022806D051F8800F40F48070086080
:101BA00000207047D1F8800040F48070C1F88000B8
:101BB000086820F4C06040F400700860B2FBF3F0E5
:101BC000401C00E0401E4A695205DBD50028F9D1CF
:101BD000D8E700001800002040420F0000700040CD
:101BE0000248816841F48041816070470070004084
:101BF0002DE9F8430446006800269D4D00035ED59C
:101C0000A86D0027C00008D4A86D40F08050A865DA
:101C1000A86D012700F080500090DFF85892D9F8A5
:101C2000001041F48071C9F80010FFF741FD8046B3
:101C300006E000BFFFF73CFDA0EB080002282BD810
:101C4000D9F80000C005F5D5D5F8900010F4407023
:101C500014D0216C814211D0D5F89000D5F89010A5
:101C600020F4407041F48031C5F89010D5F8901000
:101C700021F48031C5F89010C5F89000C00711D04C
:101C8000FFF716FD804641F2883907E0FFF710FDA7
:101C9000A0EB0801494501D903260BE0D5F89000D7
:101CA0008007F3D5D5F89000216C20F440700843EC
:101CB000C5F890001FB1A86D20F08050A86520786D
:101CC000C00707D0D5F88800616820F003000843FA
:101CD000C5F888002078800707D5D5F88800A16866
:101CE00020F00C000843C5F888002078400707D58D
:101CF000D5F88800E16820F030000843C5F8880076
:101D00002078000707D5D5F88800216920F0C000A9
:101D10000843C5F888002078800607D5D5F88800E4
:101D2000616920F440600843C5F8880020784006C7
:101D300007D5D5F88800A16920F440500843C5F8BC
:101D400088002078000607D5D5F88800E16920F4DE
:101D500040400843C5F888002088C00507D5D5F85D
:101D60008800216A20F440300843C5F888002088A4
:101D7000800507D5D5F88800616A20F44020084323
:101D8000C5F88800208840050FD5D5F88800A16ADD
:101D900020F440100843C5F88800A06AB0F5801F01
:101DA00003D1E86840F48010E860208800050FD572
:101DB000D5F88800E16A20F440000843C5F888009F
:101DC000E06AB0F5800F03D1E86840F48010E86065
:101DD0002088C0040FD5D5F88800216B20F0407012
:101DE0000843C5F88800206BB0F1807F03D1E86814
:101DF00040F48010E86020884FF0006180040ED528
:101E0000D5F88800626B20F040601043C5F8880068
:101E1000606B884203D1E86840F48010E860208855
:101E200040040ED5D5F88800A26B20F04060104326
:101E3000C5F88800A06B884203D1E86840F48010A0
:101E4000E860208800040FD5D5F88800E16B20F009
:101E500040500843C5F88800E06BB0F1805F03D1C3
:101E6000E86840F48030E8603046BDE8F883000060
:101E700000100240007000402DE9F0470E460500BA
:101E80004FF0000725D0DFF8AC81D8F8000000F053
:101E90000F00B0420CD2D8F8001021F00F013143EE
:101EA000C8F80010D8F8000000F00F00B04210D1C0
:101EB0002968614CC80741F2883A5AD06868DFF84F
:101EC0007C91032808D0022820682DD040050028E6
:101ED0002CDB0120BDE8F08720688001F9D5E0689F
:101EE00000F00302E068C0F30310401C032A19D07D
:101EF000534A00BFB2FBF0F0E268C2F3062250433F
:101F0000E268C2F34162521C5200B0FBF2F0484555
:101F100017D9A06810F0F00F0CD0880711D5A86869
:101F200040B10EE0474AE5E78003D0E700F0B6F89D
:101F3000484506D9A06820F0F00040F08000A0607D
:101F40008027A068696820F003000843A060FFF7BD
:101F5000AFFB814606E000BFFFF7AAFBA0EB09013B
:101F600051453AD8A068696800F00C00B0EB810FC9
:101F7000F2D12868810714D5400703D5A06840F442
:101F8000E060A0602878000705D5A06820F46050C4
:101F900040F4E060A060A068A96820F0F000084369
:101FA00004E0802F03D1A06820F0F000A060D8F8F2
:101FB0000010404601F00F01B14216D9016821F02E
:101FC0000F0131430160FFF773FB074607E000BFD5
:101FD000FFF76EFBC11B514501D903207AE7D8F802
:101FE000000000F00F00B042F2D12878400705D57C
:101FF000A068E96820F4E0600843A0602878000742
:1020000006D5A068296920F4605040EAC100A060AC
:1020100000F044F8A1680C4AC1F30311515C01F0CF
:102020001F01C8400949086009480068BDE8F04739
:10203000FFF70CBD002002400010024000B4C404B1
:102040000024F40000127A00844B000818000020DD
:102050000C0000200548064900688968054AC1F35C
:102060000221515C01F01F01C84070471800002098
:1020700000100240944B0008054806490068896832
:10208000054AC1F3C221515C01F01F01C8407047ED
:102090001800002000100240944B0008184910B5A9
:1020A0008868C0F381021748012A0BD08A68431060
:1020B000C2F38102022A06D08A68C2F38102032A8F
:1020C00003D0002010BD184610BDCA6802F00304FA
:1020D000CA68C2F30312521C032C02D0B0FBF2F008
:1020E00001E0B3FBF2F0CA68C968C2F306225043AC
:1020F000C1F34161491C4900B0FBF1F010BD000083
:10210000001002400024F4002DE9F84304007AD0C6
:102110002078F84DC00747D0A868E96800F00C00A7
:1021200001F003010C2802D0082817D001E0032990
:1021300014D06068B0F5803F17D0B0F5A02F2868A4
:1021400017D020F480302860286820F48020286090
:102150006068E0B1FFF7ACFA064614E02868800337
:1021600022D560680028D2D01EE0286840F4803074
:10217000EDE740F480202860F7E700BFFFF798FA0A
:10218000801B642870D828688003F7D50CE0FFF71F
:102190008FFA064605E000BFFFF78AFA801B642825
:1021A000F0D828688003F7D4207880074CD5A86839
:1021B000E96800F00C0001F003010C2802D00428AB
:1021C0000DD001E002290AD0E068002828682BD051
:1021D00040F480702860FFF76BFA064619E0286823
:1021E000400502D5E068002891D06868217C20F085
:1021F000FE4040EA01606860BF480068FFF726FCC7
:10220000002800D120E072E1FFF752FA801B02287B
:10221000B8D828684005F7D56868217C20F0FE40D2
:1022200040EA016068600FE020F480702860FFF7EA
:102230003FFA064605E000BFFFF73AFA801B022886
:10224000A0D828684005F7D42078000729D5606910
:102250000028D5F8940013D040F00100C5F8940090
:10226000FFF726FA064606E090E000BFFFF720FAE7
:10227000801B022886D8D5F894008007F6D510E098
:1022800020F00100C5F89400FFF712FA064604E0BA
:10229000FFF70EFA801B022878D8D5F89400800743
:1022A000F6D42078400761D5A86D0026C00008D478
:1022B000A86D40F08050A865A86D012600F0805000
:1022C00000908E480168C90511D40168804641F428
:1022D00080710160FFF7ECF9074604E0FFF7E8F9C9
:1022E000C01B022852D8D8F80000C005F6D5A06857
:1022F000012815D00528D5F8900016D020F001004F
:10230000C5F89000D5F8900020F00400C5F89000C2
:10231000A06841F28838B8B1FFF7CAF907460EE065
:10232000D5F8900040F00100F0E740F00400C5F857
:102330009000F5E7FFF7BCF9C11B414526D8D5F859
:1023400090008007F6D50CE0FFF7B2F9074604E0ED
:10235000FFF7AEF9C11B414518D8D5F890008007AA
:10236000F6D41EB1A86D20F08050A86520788006B4
:1023700029D5A0690028D5F8980013D040F00100B5
:10238000C5F89800FFF794F9064606E075E000BF2F
:10239000FFF78EF9801B02286FD8D5F898008007C8
:1023A000F6D510E020F00100C5F89800FFF780F99D
:1023B000064604E0FFF77CF9801B02285DD8D5F8BB
:1023C00098008007F6D4E069F0B3A968C1F38101F1
:1023D00003295DD00228286820F08070286003D08F
:1023E000FFF766F904464BE0FFF762F9064604E0A2
:1023F000FFF75EF9801B02283FD828688001F7D4D8
:10240000F4E908016FF00F0202EB01110843218A81
:102410005204490802EB4151A26841EA02210843F3
:10242000217D4FF07E42490802EB41610843217B48
:1024300040EAC160E968324A11400843E860286810
:1024400040F08070286000E05EE0E86840F0807056
:10245000E860FFF72DF9044605E000BFFFF728F913
:10246000001B022809D828688001F7D54CE000BF7E
:10247000FFF71EF9001B022802D90320BDE8F883EC
:1024800028688001F4D4E8681E490840E8603BE011
:102490000128F3D0E868226A00F00301914226D1B6
:1024A000616A00F0F0020901103991421FD1A26A5D
:1024B00000F4FE41B1EB022F19D194F82C2000F06A
:1024C0007841B1EBC26F12D1218E00F4C0024908ED
:1024D0004905A1F50011914209D194F8341000F09A
:1024E000C06049084906A1F1007181420CD0012069
:1024F000C4E70000001002400C0000200070004003
:102500000C809F01FCFFEEFE0020B7E710B5401ED7
:10251000B0F1807F01D3012010BD4FF0E024606155
:102520000F21601701F0E4FC0020A061072020616A
:10253000002010BDF0B590F83C20012A3AD00125CA
:1025400080F83C50022280F83D2003685A689C685D
:10255000194E1A4FB34201D0BB4204D122F4700C81
:102560004A6842EA0C02DFF858C002EA0C02D1F8CD
:1025700000C04CEA020CC3F804C00268B2420DD09D
:10258000B2F1804F0AD00F4B9A4207D00E4B9A42BD
:1025900004D0BA4202D00D4B9A4204D1896824F08B
:1025A00080031943916080F83D50002180F83C1071
:1025B0000846F0BD0220F0BD002C0140003401406F
:1025C0008FFFFFFD00040040000800400040014074
:1025D00010B5040003D094F83D0010B107E00120CD
:1025E00010BD002084F83C00204600F023F80220B3
:1025F00084F83D00211D206800F06EFF012084F862
:10260000480084F83E0084F83F0084F8400084F8D5
:10261000410084F8420084F8430084F8440084F8C0
:10262000450084F8460084F8470084F83D00002007
:1026300010BD000008B50068B0F1804F08D1054812
:10264000816D41F001018165806D00F00100009015
:1026500008BD00000010024070B5044690F83C0030
:102660000025012814D0012684F83C60022084F85B
:102670003D0022689068364B184020F47F409060FF
:10268000086870282ED010DC10F00F0F03D021E066
:102690004FF0020070BD4FEA2012072A1AD2DFE87D
:1026A00002F0525252524A3840002A4BC21A984203
:1026B00049D009DCB0F5805F0DD0B0F5005F1CD0CB
:1026C000B0F1101F06D13EE0102A3CD0202A3AD0AB
:1026D000502A38D0012584F83D60002084F83C0061
:1026E000284670BDCB68D1E90121206800F05DFF6C
:1026F0002068816841F0770109E0CB68D1E90121C8
:10270000206800F052FF2068816841F480418160B8
:10271000E1E7CA684968206801F0FCF850212068A8
:1027200006E0CA684968206801F022F96021206843
:1027300000F046FFCFE7CA684968206801F0EAF870
:1027400040212068F4E7226801461046F0E70000C7
:1027500088FFCEFF2000100010B586B0044614217B
:102760006846FDF78DFD2068B0F1804F16D10C480A
:10277000C16C41F00101C164C06C694600F0010008
:1027800005900C2000900220019000200290039000
:10279000012004904FF09040FEF76AFE06B010BD95
:1027A0000010024070B5044690F83C0000260D462B
:1027B00001280BD0012084F83C000C2A4AD007DC09
:1027C00082B1042A20D0082A06D131E0022070BD4F
:1027D000102A53D0142A63D00126002084F83C002C
:1027E000304670BD206800F0F5FE2068816941F038
:1027F000080181612068816921F0040181612068FC
:1028000081692A69114311E0206800F035FF2068D2
:10281000816941F4006181612068816921F48061EE
:102820008161206881692A6941EA02218161D4E7D6
:10283000206800F06BFF2068C16941F00801C161A8
:102840002068C16921F00401C1612068C1692A6959
:10285000114311E0206800F0A3FF2068C16941F432
:102860000061C1612068C16921F48061C161206893
:10287000C1692A6941EA0221C161AEE7206800F01E
:10288000D9FF2068016D41F0080101652068016DE4
:1028900021F0040101652068016D2A69114311E0EE
:1028A000206800F0FFFF2068016D41F400610165C0
:1028B0002068016D21F4806101652068016D2A693D
:1028C00041EA0221016588E710B5040003D094F8BD
:1028D0003D0010B107E0012010BD002084F83C004D
:1028E000204600F022F8022084F83D00211D2068D7
:1028F00000F0F2FD012084F8480084F83E0084F8DE
:102900003F0084F8400084F8410084F8420084F8D5
:10291000430084F8440084F8450084F8460084F8B5
:10292000470084F83D00002010BD704730B50446D4
:10293000022269B1042912D0082917D00C291CD011
:10294000102921D094F84300012824D0012030BD63
:1029500094F83E000128F9D184F83E201DE094F857
:102960003F000128F2D184F83F2016E094F840009F
:102970000128EBD184F840200FE094F841000128B1
:10298000E4D184F8412008E094F842000128DDD128
:1029900084F8422001E084F843200122206800F0FE
:1029A000F7FD194B20681949194A984209D0884205
:1029B00007D0904205D0174DA84202D0164DA8422C
:1029C00003D1456C45F400454564206898420CD01D
:1029D000B0F1804F09D0114B984206D0104B98426D
:1029E00003D0884201D0904207D181680D4A11403E
:1029F000062906D0B1F5803F03D0016841F00101FE
:102A00000160002030BD0000002C01400034014076
:102A100000400140004401400048014000040040E3
:102A2000000800400700010090F88410012918D028
:102A3000012180F884102421C0F8881001680A68F8
:102A40000B6823F001030B6022F000510022426664
:102A5000036819602021C0F8881080F8842010468F
:102A600070470220704770B5044690F88400012832
:102A70001DD0012084F884002420C4F88800206838
:102A80000568026822F0010202602068826822F074
:102A900060620A438260204600F08AFF2068056079
:102AA0002020C4F88800002084F8840070BD022033
:102AB00070BD70B5044690F8840001281DD0012037
:102AC00084F884002420C4F888002068056802681F
:102AD00022F0010202602068826822F060420A430C
:102AE0008260204600F064FF206805602020C4F862
:102AF0008800002084F8840070BD022070BD10B5ED
:102B0000040003D0D4F8880010B107E0012010BD04
:102B1000002084F88400204600F026F82420C4F821
:102B200088002068016821F001010160A06A10B1ED
:102B3000204600F05FFF204601F040F80128E6D073
:102B40002068416821F4904141602068816821F04B
:102B50002A0181602068016841F00101016020467E
:102B6000BDE8104000F0AABF10B598B0044614218B
:102B700011A8FDF785FB44216846FDF781FB174945
:102B80002068884228D101200024CDE9000468464D
:102B9000FFF72EF808B1FDF73EFF1148016E41F432
:102BA00080410166016E01F480411691C16C41F0D3
:102BB0000101C164C06C11A900F0010016904FF42E
:102BC000C06011900220CDE912040720CDE9144025
:102BD0004FF09040FEF74CFC18B010BD003801409B
:102BE00000100240FEE701688A69D243920701D4CF
:102BF00000228A6200688169C943C90703D08169DC
:102C000041F00101816170472DE9F04704460068F9
:102C100089460026816935461746C9064FF02008C7
:102C200041D51021C1612FE0B9F1FF3F2CD0FEF753
:102C30003FFDC11B494502D8B9F1000F24D12068DE
:102C4000416894F8422001F480418369DB431B040E
:102C500015D4B1F5804F12D0202A10D0416841F42C
:102C600080414160FEF724FD074608E0FEF720FDA5
:102C7000C01B192803D945F02005012604E020686F
:102C80008069C0438006F1D420688069C043800613
:102C900002D5002EC8D003E016B92168C1F81C8007
:102CA00045F00405012621688869C20505D54FF461
:102CB000807245F00105CA610126410509D52268E7
:102CC0004FF4806145F00805D1610126800502D4EA
:102CD0000AE0800507D521684FF4007045F0020531
:102CE000C861012600E086B12046FFF77CFF54F85A
:102CF000240B4168064A11404160206A2843206243
:102D000084F81D800020A07720773046BDE8F0874A
:102D100000E800FE2DE9F84304461646154898469B
:102D2000DDE90897DAB2C3020090204600F024F8EB
:102D30003A464946204600F09FF8B8B9F5B2B8F1D6
:102D4000010F08D02168300A88623A464946204679
:102D500000F092F850B9206885624B46002280212D
:102D60002046009700F020F8002800D00120BDE8A0
:102D7000F88300000020008010B5C1F3090141EA8A
:102D800002410268029C19432143506821F000412E
:102D90004FF4806303EA5453024C2343984308439F
:102DA000506010BDFF63FF032DE9F0411D4617463B
:102DB0000E460446DDF8188027E0424629462046A4
:102DC000FFF722FF10B10120BDE8F081681C1CD084
:102DD000FEF76EFCA0EB0800A84200D8ADB9206851
:102DE000806936EA00000ED00020B8420DD154F8B8
:102DF000440F40F0200044F80409202060700020B7
:102E0000A0702070DFE70120EFE72068806936EAD4
:102E1000000004D00020B842CFD00020D4E7012029
:102E2000F9E770B516460D4604461EE032462946BF
:102E30002046FFF7E9FE08B1012070BDFEF738FC1F
:102E4000801BA84200D885B920688069C0438006ED
:102E50000BD554F8440F40F0200044F8040920201A
:102E600060700020A0702070E6E720688069C04391
:102E70008006DBD4002070BD70B516460D460446B2
:102E800020E0324629462046FFF7BEFE08B1012069
:102E900070BD681C16D0FEF70BFC801BA84200D842
:102EA00085B920688069C04380070BD554F8440F6A
:102EB00040F0200044F80409202060700020A07039
:102EC0002070E4E720688069C0438007D9D40020DF
:102ED00070BD00EB8100006E00F0F8407047806824
:102EE000C0F3C00070478068C0F3800070478068FE
:102EF000C0F380007047C06810F4406F01D000201C
:102F0000704701207047042303EAD15310B51844D9
:102F10004369C1F3045107248C40A3438A401343FF
:102F2000436110BD00EB8100016E21F000411143AF
:102F30000166704730B58BB00024089409942021B5
:102F400068460A94FDF79CF91F484FF0A0410425FC
:102F500001604FF44031C0E90114C4600461C0E96C
:102F60000545047744770121016280F82440C4625A
:102F7000046380F83840C46380F840101C22426427
:102F800080228264C0E91341FEF714F808B1FDF70E
:102F900042FD08A90C480894FDF78AFD08B1FDF729
:102FA0003AFD0A4800900620CDE901047F200594EF
:102FB000CDE9030569460448FDF7E6FD002801D088
:102FC000FDF729FD0BB030BD580000200200300491
:102FD00010B586B014216846FDF752F91648C16C49
:102FE00041F02001C164C16C01F020010591C16C68
:102FF00041F00101C164C16C01F001010591C16C96
:1030000041F00201C164C06C4FF0904400F0020036
:103010000590002202212046FEF744FB022000908A
:1030200001200021CDE90101039169462046FEF708
:103030001FFA06B010BD000000100240134810B582
:10304000114901601249416000210122C0E90212C8
:10305000016141618161C1610162FEF783FB08B1D9
:10306000FDF7D9FC00210948FEF728FB08B1FDF760
:10307000D2FC00210548FEF74CFB002803D0BDE838
:103080001040FDF7C8BC10BD00540040C400002033
:103090003612624010B58EB000240794089409944B
:1030A0000A940B940C941C2168460D94FDF7E8F8E3
:1030B00021484FF0804101601021C0E9011440F225
:1030C000F311C0E903148461FFF782FA08B1FDF738
:1030D000A2FC4FF48050079007A91748FFF7BCFAED
:1030E00008B1FDF798FC1448FFF7EEFB08B1FDF7B7
:1030F00092FC0B940BA910480D94FFF71BFA08B132
:10310000FDF789FC6020CDE900040294082269469D
:1031100009480494FFF746FB08B1FDF77CFC0C223C
:1031200069460548FFF73EFB08B1FDF774FC02480D
:10313000FFF712FB0EB010BD18010020184810B5A3
:10314000164901604FF4E1314160002181600C2299
:10315000C160C0E904128161C161016241628162A2
:10316000FFF7CDFC08B1FDF756FC00210C48FFF736
:10317000A0FC08B1FDF74FFC00210948FFF773FCE4
:1031800008B1FDF748FC0648FFF74EFC002803D0C5
:10319000BDE81040FDF73FBC10BD00000038014005
:1031A00064010020FEE7FEE770B5002404F1B000E2
:1031B000C0B200F0D3F8002000F0D0F8102000F0EA
:1031C000CDF80025002000F0DBF86D1CEDB2802D5D
:1031D000F8D3641CE4B2082CE8D370BD10B56420A9
:1031E000FEF734F9AE2000F0B9F8002000F0B6F890
:1031F000102000F0B3F8402000F0B0F8B02000F04C
:10320000ADF8812000F0AAF8FF2000F0A7F8A12077
:1032100000F0A4F8A62000F0A1F8A82000F09EF885
:103220003F2000F09BF8C82000F098F8D32000F071
:1032300095F8002000F092F8D52000F08FF880205B
:1032400000F08CF8D82000F089F8052000F086F80E
:10325000D92000F083F8F12000F080F8DA2000F0A7
:103260007DF8122000F07AF8DB2000F077F83020AB
:1032700000F074F88D2000F071F8142000F06EF862
:10328000BDE81040AF2000F069B810B50446B03179
:10329000C8B200F063F8102040EA141000F05EF8A5
:1032A00004F00F00BDE8104000F058B870B50025DC
:1032B000A2F130032C46092B02D82F3AD4B21BE0DE
:1032C0003A2A0CD02E2A0CD0432A0CD0542A0CD0E7
:1032D000652A0CD06D2A0CD0702A0CD00CE00B247F
:1032E0000AE00C2408E00D2406E00E2404E00F247C
:1032F00002E0102400E011247A2802D9491C0020A1
:10330000C9B2FFF7C2FF064904EB440001EB4004D9
:10331000605D00F035F86D1CEDB2062DF8D370BD80
:10332000F04A00082DE9F041984617460E4604463B
:1033300000250DE0434631462046FFF7B7FFA41DA8
:10334000E4B2782C02D90024B61CF6B26D1CEDB2A2
:103350007A5D002AEED1BDE8F081000001B584B0AD
:103360000121642204A88DE807000B460022782181
:103370000248FEF755FA05B000BD0000C400002069
:1033800001B584B00121642204A88DE807000B4632
:10339000402278210248FEF743FA05B000BD000044
:1033A000C400002080ED040A30EEC00AC0ED030A1C
:1033B000214A80ED050AD0ED070A70EE800A10EE72
:1033C000901AC0ED070A914202DDDFED1C0A06E00B
:1033D00010EE901A1A4A914203D9DFED1A0AC0ED95
:1033E000070AD0ED000A90ED011AD0ED071A60EE41
:1033F000800A154A41EE210A90ED061AD0ED021A14
:1034000030EE411A41EE810A10EE901AC0ED080A22
:1034100080ED060A914202DD9FED0C0A09E010EEF4
:10342000901A0B4A914202D890ED080A70479FED1E
:10343000090A80ED080A70470000FA440000FA44C7
:103440000000FAC40000FAC40080F9430080F94388
:103450000080F9C30080F9C370477047FEF7DEBAF9
:1034600000B593B038216846FCF70AFF14210EA876
:10347000FCF706FF0020FEF755FB0220C101039177
:10348000402104910421CDE9080100905521CDE9A6
:103490000A1007900C900D906846FEF735FE08B1B3
:1034A00072B6FEE70F200E9003200F9000201090C0
:1034B0001190129004210EA8FEF7DEFC002801D026
:1034C00072B6FEE713B000BD0248016841F4700116
:1034D0000160704788ED00E02DE9F0430268254B5C
:1034E000254D264E264C4FF08049984207D048453E
:1034F00005D0A84203D0B04201D0A04203D122F0AF
:1035000070074A683A431F4FDFF87CC0DFF87C80C1
:1035100098420DD048450BD0A84209D0B04207D000
:10352000A04205D0B84203D0604501D0404503D148
:1035300022F44075CA682A434D6922F080022A436A
:103540008D68C5620D688562984207D0A04205D09B
:10355000B84203D0604501D0404501D109690163FB
:10356000016841F004010160012141610260BDE890
:10357000F0830000002C01400004004000080040DF
:103580000034014000400140004401400048014037
:1035900010B501F01F030121046A99408C430462B5
:1035A000016A9A401143016210BD10B5846842EA75
:1035B000032224F47F440A432243826010BD0000AA
:1035C0008268034B1A400A4342F00701816070474A
:1035D0008FFFCFFF2DE9F043056A026A22F0010256
:1035E0000262436882691E4C25F0020522400C6885
:1035F00022F0030214438A681B4E2A43194D1B4FC5
:10360000DFF86CC0DFF86C90A84207D0B04205D05C
:10361000B84203D0604501D048450AD1D0F8208097
:1036200028F00408C0F8208022F00808CA6842EA9E
:103630000802A84207D0B04205D0B84203D0604586
:1036400001D0484505D14D6923F440731D438B6972
:103650002B4343608461496841630262BDE8F083A3
:103660008FFFFEFF002C014000340140004001406C
:103670000044014000480140F0B5056A026A22F0AA
:1036800010020262426883691A4C1C4E23400C6887
:1036900023F4407343EA042425F020038D6843EAB1
:1036A0000513154DA84201D0B04208D1076A27F092
:1036B00040070762CF6823F0800343EA0713A8425C
:1036C0000AD0B04208D00E4DA84205D00D4DA842F8
:1036D00002D00D4DA84207D14D6922F4406242EA62
:1036E00085028D6942EA850242608461496881638E
:1036F0000362F0BDFF8FFFFE002C0140003401404B
:10370000004001400044014000480140F0B5056A16
:10371000026A22F4807202624268C3691A4C1C4E2B
:1037200023400C6823F003031C4325F400738D68C9
:1037300043EA0523154DA84201D0B04208D1076ADB
:1037400027F480670762CF6823F4006343EA072306
:10375000A8420AD0B04208D00E4DA84205D00E4D66
:10376000A84202D00D4DA84207D14D6922F4405223
:1037700042EA05128D6942EA05124260C461496855
:10378000C1630362F0BD00008FFFFEFF002C01400B
:103790000034014000400140004401400048014025
:1037A000F0B5056A026A22F4805202624268C36977
:1037B0001A4C1C4E23400C6823F4407343EA042443
:1037C00025F400538D6843EA0533154DA84201D016
:1037D000B04208D1076A27F480470762CF6823F414
:1037E000004343EA0733A8420AD0B04208D00E4D46
:1037F000A84205D00D4DA84202D00D4DA84207D1D8
:103800004D6922F4404242EA85128D6942EA8512EE
:103810004260C461496801640362F0BDFF8FFFFE2E
:10382000002C0140003401400040014000440140B0
:103830000048014030B5056A026A22F48032026213
:103840004268036D114C23400C681C4325F400337F
:103850000D8943EA05430E4DA8420BD00D4DA842F9
:1038600008D00D4DA84205D00C4DA84202D00C4DF9
:10387000A84204D14D6922F4803242EA0522426016
:10388000046549688164036230BD00008FFFFEFF5C
:10389000002C014000340140004001400044014040
:1038A0000048014030B5046A026A22F480120262C4
:1038B0004268036D114D24F400142B400D6843EA57
:1038C00005230D8944EA05540D4DA8420BD00D4D3A
:1038D000A84208D00C4DA84205D00C4DA84202D0F9
:1038E0000B4DA84204D14D6922F4802242EA852280
:1038F000426003654968C164046230BDFF8FFFFE0A
:10390000002C0140003401400040014000440140CF
:103910000048014010B5036A046A24F001040462FF
:103920000E4CA0420BD00E4CA04208D00D4CA04231
:1039300005D00D4CA04202D00C4CA04203D1046A29
:1039400024F004040462846924F0F00444EA0214BC
:1039500023F00A020A438461026210BD002C014078
:103960000034014000400140004401400048014053
:1039700010B5036A046A24F0100404620A4CA042E1
:1039800002D00A4CA04203D1046A24F0400404622D
:10399000846923F0A00324F4704444EA023243EA29
:1039A00001118261016210BD002C01400034014010
:1039B00030B5416EB9B1026891689268C1F3426155
:1039C0000B4B520F9C5CE50003F10804A25CB5FBB5
:1039D000F2F2A0F86A205A5C615CD200B2FBF1F10D
:1039E000A0F8681030BD0121A0F86A10F8E70000C7
:1039F000744B000890F82810090706D501684A683A
:103A0000836B22F400421A434A6090F82810C907D9
:103A100006D001684A68C36A22F400321A434A6039
:103A200090F82810890706D501684A68036B22F4CC
:103A300080321A434A6090F82810490706D5016879
:103A40004A68436B22F480221A434A6090F8281097
:103A5000C90606D501688A68C36B22F480521A43EE
:103A60008A6090F82810890606D501688A68036C78
:103A700022F400521A438A6090F82810490611D5A2
:103A800001684A68436C22F480121A434A60416C10
:103A9000B1F5801F06D101684A68836C22F4C00228
:103AA0001A434A6090F82810090606D501684A684A
:103AB000C06C22F4002202434A6070472DE9F843AB
:103AC00000260446C0F89060FDF7F2FD80462068AD
:103AD00000684FF0200500076FF07E4713D543467E
:103AE000002229042046009700F0A2F958B121686D
:103AF00051E8000F20F0800041E80002002AF6D1D2
:103B0000C4F8885021E020680068400722D5434669
:103B100000224FF480012046009700F089F9C8B1D7
:103B2000216851E8000F20F4907041E80002002A5B
:103B3000F6D12068083050E8001F21F0010140E86C
:103B40000012002AF5D1C4F88C5084F88460032058
:103B5000BDE8F883C4F88850C4F88C5044F86C6F02
:103B6000666026760020F3E710B5026852E8001F71
:103B700021F4907142E80013002BF6D10E4B02683D
:103B8000083252E8001F194042E80014002CF6D118
:103B9000C16E012908D1016851E8002F22F01002FE
:103BA00041E80023002BF6D12021C0F88C10002121
:103BB000C166416710BD0000FEFFFFEF2DE9F04137
:103BC0000446016880682269E36910436269002540
:103BD0001A431043DFF82CC20A688B4B1A40024389
:103BE0000A6020684168E26821F440511143416055
:103BF0002168A069614501D0226A10438A68834B1D
:103C00001A4002438A602068C16A626A21F00F018B
:103C10001143C1627E4923687E488B420DD1D0F8A2
:103C2000880010F0030006D0012855D0022842D0A9
:103C300003283FD152E001203DE077498B420BD170
:103C4000D0F8880010F00C0035D0042833D00828B4
:103C500040D00C282ED141E070498B420BD1D0F8D6
:103C6000880010F0300026D0102835D0202831D020
:103C700030281FD132E06A498B420BD1D0F888003E
:103C800010F0C00017D0402826D0802822D0C028AD
:103C900010D123E063450DD1D0F8880010F44060C6
:103CA00009D0B0F5806F17D0B0F5006F12D0B0F525
:103CB000406F13D010205B495B4F00264FF4004249
:103CC00063453BD160B1022813D004280BD00828EB
:103CD00072D10DE00220EEE70420ECE70820EAE7CD
:103CE000FEF7B8F901E0FEF7D9F9010001D17CE057
:103CF0001146606A37F810206768B1FBF2F007EBF5
:103D00004703834270D8B0EB073F6DD800230846C5
:103D10001946FCF77DFA090241EA106102027808AF
:103D2000101871413A460023FCF772FA3F4AA0F599
:103D30004071914258D82168C86056E0E3694FF657
:103D4000EF7893422CD109284ED2DFE800F0050825
:103D5000114D0D4D4D4D1000FEF77CF901E0FEF7C1
:103D60008BF9010004D140E0FEF798F9F9E711461C
:103D7000606A37F81000B1FBF0F04100606801EBB9
:103D80005001B1FBF0F0A0F1100141452CD84FF6E5
:103D9000F0710140C0F3420001432068C16024E09B
:103DA000092821D2DFE800F0050912200E2020208A
:103DB0001100FEF74FF902E016E0FEF75DF9010091
:103DC00004D112E0FEF76AF9F9E71146606A37F8A4
:103DD0001000B1FBF0F1606801EB5001B1FBF0F0B5
:103DE000A0F1100141450AD901250120A4F86A007B
:103DF00024F8680F2846E6602661BDE8F08180B2AD
:103E000099E7000000800040F369FFCFFFF4FF1145
:103E100000380140001002400044004000480040CB
:103E2000004C00400024F4005C4B0008FFFC0F0035
:103E30002DE9F047994617460D4604464FF0000815
:103E4000089E33E0701C31D0FDF732FCA0EB090076
:103E5000B04218D8BEB120680168490726D5802D28
:103E600024D0402D22D0C169C94309070DD40825AB
:103E700005622046FFF778FEC4F8905084F88480ED
:103E80000120BDE8F0870320FBE7C069C0430005BF
:103E90000CD421684FF4006008622046FFF764FEEE
:103EA0002020C4F8900084F88480ECE72068C06982
:103EB00035EA000004D00020B842C3D00020E0E77B
:103EC0000120F9E7FEE700000FB4084B10B504A984
:103ED00002AA039800F0C0F9044602A9002000F0ED
:103EE00052FD204610BC5DF814FB00008749000815
:103EF0000907090E002804DB00F1E02080F8001417
:103F0000704700F00F0000F1E02080F8141D7047AA
:103F100010EE100A10B50023A0F50001B1F1FE4F1C
:103F200067D200BF00F500216FF07E0202EBE15C7A
:103F3000C1F302524FF07E5101EB025100EE901A94
:103F4000A0EBCC5003EB0C0100EE100A51EA02008A
:103F500036D030EE601A70EE200A9FED3D2A3E48C2
:103F600081EE200A9FED3B1A60EE000A00EE821AF5
:103F700060EE201A61EE810A784401EE101A00EB1F
:103F800082009FED362AB8EEC11AD0ED001A3448EF
:103F900041EE021A784401EE101A00EB8200B8EEEE
:103FA000C11A90ED002ADFED2F2A01EE222AB0EE91
:103FB000001A72EE200A40EE010A31EEA00A10BD8E
:103FC000F7EE000A9FED291A30EE600ADFED260AAF
:103FD00000EE201ADFED260A60EE001A40EE010A1C
:103FE0009FED241A00EE201A61EE810A30EE200ABD
:103FF00010BD4FF07F41B1EB400F03D2BDE8104040
:1040000000F046B8B0F1FF4F08BF10BDB5EEC00AD2
:10401000F1EE10FA06D2012000F056F8BDE810408B
:1040200000F03AB8B5EEC00AF1EE10FA07D102205E
:1040300000F04AF800F022F8B1EE400A10BDDFEDC2
:104040000E0A6FF0160320EE200A10EE100A69E740
:1040500066F1CC3EAAAA2A3F200C00000070313F36
:10406000240C0000F4FD053821ED423E0A1180BE0B
:10407000C1ABAA3EFFFFFFBE0000004BDFED030A0D
:10408000B7EE001A81EE200A704700000000000021
:1040900030EE000A70470000DFED020A80EEA00A51
:1040A000704700000000000002E008C8121F08C1AD
:1040B000002AFAD170477047002001E001C1121FA9
:1040C000002AFBD1704700000149086070470000DA
:1040D0001C0000202DE9FF5F82B00021DDE90430E3
:1040E000020DDDF840B0034318D044F61050A2F2A0
:1040F000FF3242431514119801281FD0A5EB0B0085
:10410000401C5FEA000A4FF000064E4FDFF838917E
:10411000B046504615D5CAF1000413E011980124A9
:104120004AA3012801D16FEA0B010298119AC0E954
:104130000031C0E9024206B0BDE8F09FCBF10000BB
:10414000DFE704460021404A491842EB0450CDE91C
:10415000001012E0E00707D032463B464046494691
:10416000FCF788F98046894632463B461046194698
:10417000FCF780F906460F466410002CEAD1DDE911
:104180000401DDE90023BAF1000F06DAFCF772F949
:1041900042464B46FCF76EF905E0FCF7DDF9424676
:1041A0004B46FCF7D9F904460E460022284BFCF793
:1041B0005BFA03D84FF0FF30014607E00022254BA1
:1041C00020463146FCF7AFF8FCF735FA102409E039
:1041D000002C0ADB0A220023FCF71AF8039B30327A
:1041E0001A55641E50EA0102F2D1641C039AC4F10C
:1041F00011031444119A012A03D0012208430DD15E
:104200000AE0084304D000204FF0110B119072E730
:10421000A3EB0B056D1E0DE05B4504DD4FF00002C6
:1042200005F1010504E003DA4FF00002A5F10105F4
:10423000002AECD002981199C0E90231C0E900458A
:1042400079E70000000014400000F03F300000005B
:104250000000F0430000E03F2DE9FF4F95B09B4682
:104260008946064600250FE2252877D100242746F7
:10427000F84A0121059400E0044316F8013F203B71
:1042800001FA03F01042F7D130782A2811D06FF0EC
:104290002F033078A0F13002092A16D8059A44F08D
:1042A000020402EB820203EB42021044761C0590EA
:1042B000EFE759F8042B0592002A03DA504244F440
:1042C0000054059044F00204761C30782E2816D154
:1042D00016F8010F44F004042A280DD06FF02F02C5
:1042E0003078A0F13003092B09D807EB870302EBE4
:1042F0004303C718761CF3E759F8047B761C307823
:104300006C280FD006DC4C2817D068280DD06A28FE
:1043100014D104E0742810D07A280FD10DE044F4B1
:1043200000140AE044F4801401E044F4401472786C
:10433000824202D104F58014761C761C30786628FF
:104340000BD013DC582877D009DC002875D045281D
:10435000F6D04628F4D047281AD19DE118E063280A
:1043600035D0642879D0652812D195E1702873D0B2
:1043700008DC6728F1D069286FD06E280DD06F282F
:1043800006D1B5E073282CD0752875D0782874D064
:104390005A46179990476D1C75E1C4F302500228E4
:1043A00009D003280DD0D9F8001004280DD00D60D5
:1043B00009F1040967E1D9F80010EA17C1E90052D0
:1043C000F6E7D9F800100D80F2E70D70F0E719F864
:1043D000041B8DF8001000208DF80100EA46012032
:1043E00003E059F804AB4FF0FF3061074FF00001D4
:1043F00002D40DE008F101018846B9420FDA804588
:10440000F8DB1AF808100029F4D108E008F10101DE
:1044100088468142FADB1AF808100029F6D105987F
:104420005B46A0EB080721463846179A00F094FA3D
:10443000284400EB080507E04DE029E10DE01AF8FB
:10444000010B5A4617999047B8F10108F7D25B461D
:1044500021463846179A13E142E00A220092C4F33B
:1044600002524FF0000A022A08D059F804CB032A5E
:104470004FEAEC710AD00DE029E02AE009F10701CA
:1044800021F00702F2E802C1914609E00FFA8CFC24
:104490004FEAEC71042A03D14FFA8CFC4FEAEC711D
:1044A000002907DA0A460021DCF1000C61EB020169
:1044B0002D2202E0220504D52B228DF804200122B2
:1044C00003E0E20701D02022F7E7904659E00A21F5
:1044D00002E010220DE010214FF0000A00910BE0E5
:1044E00010224FF0000A44F004040827009203E071
:1044F00008224FF0000A0092C4F30252022A05D0AB
:1045000059F804CB0021032A08D009E009F107017A
:1045100021F00702F2E802C1914605E01FFA8CFC87
:10452000042A01D10CF0FF0C4FF00008220728D517
:10453000702806D0009B83F0100353EA0A0305D0CD
:104540000EE040228DF80420012208E05CEA01021E
:1045500006D030228DF804208DF805000222904606
:10456000009B83F0080353EA0A030AD15CEA0102C4
:1045700001D1620705D530228DF804204FF00108E3
:104580007F1E582804D034A003900EA802900DE09E
:1045900036A0F9E753466046009AFBF739FE844699
:1045A0000398825C0298401E029002705CEA01004F
:1045B000F0D1029806A9081A00F1200A600702D576
:1045C00024F4803400E00127574502DDA7EB0A0000
:1045D00000E0002000EB0A01009005984144401AD9
:1045E0000590E00306D45B462146179A059800F033
:1045F000B3F90544002706E001A85A46C05D1799A3
:1046000090476D1C7F1C4745F6DBE0030CD55B46ED
:104610002146179A059800F09FF9054404E03020E0
:104620005A46179990476D1C0099481E0090002922
:10463000F5DC08E0029802995A460078491C02917C
:10464000179990476D1CBAF10001AAF1010AF1DC3B
:1046500065E1000009280100303132333435363746
:1046600038396162636465660000000030313233BE
:10467000343536373839414243444546000000005E
:1046800000F058F90544761C307800287FF4ECAD32
:1046900019B02846BDE8F08F620700D4062709F15B
:1046A000070222F0070CFCE80223E14603F0004871
:1046B0005FEA080C02D00FF2702C0DE05FEA045C98
:1046C00002D50FF2682C07E05FEAC47C02D00FF23B
:1046D000602C01E0AFF2700C4FF0FF3823F0004384
:1046E000CDF850C065280CD006DC452809D04628F6
:1046F0001DD047283DD13DE0662818D067287ED1DF
:1047000038E00021112F01DB112000E0781CCDE9F9
:10471000000106A90EA8FFF7DDFCDDE90F010E9AE6
:1047200003910021009207F1010A04914DE04FF03E
:1047300000400097CDE9011006A90EA8FFF7CAFCBA
:10474000DDE90F0203920E9B11990022DDF80CA007
:104750000093049211B9791C00EB010AB7EB0A002F
:1047600004D4C0F1FF3007F1010A0490AAEB07005E
:10477000019044E0012F00DA01270021112F01DD13
:10478000112000E03846CDE9000106A90EA8FFF788
:10479000A1FCDDE90F010E9A039100210491009222
:1047A000BA4621070CD40399514500DA8A46BAF17A
:1047B000010F05DD009AAAF10101515C302908D0F2
:1047C000B84202DA10F1040F06DA0121CDE9011036
:1047D00015E0AAF10101E9E7002805DC049901448C
:1047E0000491AAEB000102E0411C514500DD8A461C
:1047F0000499401A401C01904FF00040029020079D
:1048000004D40198504501DBCDF8048000208DF8D8
:104810004F0002980DF14F07B0F1004F25D02B202B
:104820000E9002984FF0020800280CDA40420290E5
:104830002D200E9007E00A210298FBF73FFD303152
:10484000029007F8011DB8F10001A8F10108F2DC9F
:1048500002980028EFD1791E0E980870307800F089
:10486000200040F0450007F8020D12A8C01B00F11F
:1048700007081498007800B1012000EB0A010198A4
:1048800001EBE07105984144401A401E0590E00399
:1048900006D45B462146179A059800F05DF805445A
:1048A0001498007818B15A46179990476D1CE00388
:1048B00024D55B462146179A059800F04DF805442B
:1048C0001CE00498002807DBDDE90301884203DDD2
:1048D0000098405C179901E0179930205A4690479C
:1048E000049805F10105401C04900198401E0190B8
:1048F00004D12E205A46179990476D1CBAF1000139
:10490000AAF1010ADDDC05E017F8010B5A461799F8
:1049100090476D1CB8F10001A8F10108F4DC5B467A
:104920002146179A0598ABE62D0000002B000000E9
:10493000200000002DE9F041044600251E461746E0
:10494000880404D405E039462020B0476D1C641E5D
:10495000F9D52846BDE8F0812DE9F041044600254F
:104960001E469046C80301D5302700E02027880462
:1049700004D505E041463846B0476D1C641EF9D5A4
:104980002846BDE8F0810A68531C0B601070704720
:10499000FDF74CF8FEF764FDFEF71AFBFEF7CAFAC6
:1049A000FEF778FBFEF74AFBFEF7C8FB7F213D4888
:1049B000FCF734F808213C48FDF7B8FF0C213A48D1
:1049C000FDF7B4FFFEF70AFCFEF7EEFB00210C2317
:1049D00036A20846FEF7A6FC0C2339A202210020CD
:1049E000FEF7A0FC3B489FED3A0A2F4D80ED000AF0
:1049F000B7EE080A80ED010AB3EE040A80ED020A60
:104A00009FED350A354C80ED070A80ED060A002639
:104A10002448FCF781FC0A212248FCF7FFFB38B947
:104A20002048FCF7C3FA2060FBF7BAFF84ED010AC7
:104A30001C48FCF7EBFC6420FCF708FDD4ED020AEF
:104A400094ED010A2348FEF7ADFCB5EEC00AF1EE85
:104A500010FA08DDBCEEC00A296810EE100AC8631F
:104A60002868066409E02868C663B1EE400A296830
:104A7000BCEEC00A10EE100A08646068FBF70BFC7D
:104A800041EC100B134853EC102B15A11438FFF711
:104A90001BFA104A1023143A04210020FEF742FCAE
:104AA000B6E70000580000201801002054454320BC
:104AB000436F6E74726F6C2053797374656D000070
:104AC0005461726765743A2033352E3020430000FC
:104AD0000000164334000020000000000000002009
:104AE00054656D703A20252E316620432020000049
:104AF0000000000000003E5149453E0000427F405A
:104B000000004261514946002141454B31001814D3
:104B1000127F10002745454539003C4A494930007D
:104B200001710905030036494949360006494929FA
:104B30001E000036360000000000606000003E41AC
:104B40004141220001017F010100385454541800F2
:104B50007C08040478007C1414140800010002008E
:104B60000400060008000A000C00100020004000AD
:104B70008000000101010103070100000804020494
:104B80000801010100000000000000000102030410
:104B900006070809000000000102030400000000ED
:104BA0000030F13D0070643E0000A33E0090CF3E17
:104BB0000090F83E00400F3F00E0203F0000000062
:104BC00015B78337CDE37B380EE1C53860F69138F1
:104BD000AF5F0F38E1BC3E3823F44739FC4B000887
:104BE0000000002020000000A84000081C4C000825
:104BF00020000020D8050000B84000080000000098
:104C00000000000000000C42100000000100000045
:0C4C1000000000000024F4000000000080
:04000005080001D915
:00000001FF
