:020000040800F2
:100000001808002079020008532A00087D270008FC
:10001000512A00088D060008C134000800000000C5
:10002000000000000000000000000000572A000847
:100030000507000800000000552A0008592A00089A
:10004000930200089302000893020008930200083C
:10005000930200089302000893020008930200082C
:10006000930200089302000893020008930200081C
:10007000930200089302000893020008930200080C
:100080009302000800000000930200089302000899
:1000900093020008930200089302000893020008EC
:1000A00093020008930200089302000893020008DC
:1000B00093020008930200089302000893020008CC
:1000C00093020008930200089302000893020008BC
:1000D00093020008930200089302000893020008AC
:1000E000930200089302000893020008930200089C
:1000F0009302000893020008930200080000000029
:1001000000000000930200080000000093020008B5
:100110009302000800000000930200089302000808
:10012000930200089302000893020008930200085B
:100130009302000800000000000000009302000885
:100140009302000893020008000000000000000075
:10015000000000000000000000000000000000009F
:1001600000000000000000000000000093020008F2
:1001700093020008000000000000000000000000E2
:1001800000000000930200080000000000000000D2
:10019000000000000000000000000000000000005F
:1001A0000000000000000000930200089302000815
:1001B0009302000893020008930200080000000068
:1001C0000000000093020008000000000000000092
:1001D000930200089302000800F002F800F03CF8D7
:1001E0000AA090E8000C82448344AAF10107DA4592
:1001F00001D100F031F8AFF2090EBAE80F0013F0A8
:10020000010F18BFFB1A43F0010318477C350000AB
:100210009C350000103A24BF78C878C1FAD852073C
:1002200024BF30C830C144BF04680C607047000070
:100230000023002400250026103A28BF78C1FBD8EF
:10024000520728BF30C148BF0B6070471FB503F08D
:1002500055FA1FBD10B510BD00F0E2F81146FFF7CA
:10026000F5FF03F00BFA00F000F903B4FFF7F2FF1B
:1002700003BC00F003F90000094880470948004723
:10028000FEE7FEE7FEE7FEE7FEE7FEE7FEE7FEE746
:10029000FEE7FEE704480549054A064B70470000A3
:1002A000C52A0008D90100081802002018080020FB
:1002B000180400201804002053EA020C00F06980A2
:1002C0002DE9F04B4FF00006002B1FBFB3FA83F56A
:1002D00003FA05F424FA05F65E4012BF1643B2FA9B
:1002E00082F502FA05F4C5F120051EBF22FA05FCCD
:1002F00044EA0C04203556EA044C4FEA144418BF73
:10030000641C4FF000084FF00009904271EB030CA1
:1003100039D3002919BFB1FA81F701FA07F6B0FA0B
:1003200080F700FA07F6C7F120071EBF20FA07FC86
:1003300046EA0C062037B6FBF4FCA7EB0507103F96
:1003400007F01F0BCBF120060CFA0BFB2CFA06F67C
:1003500044BFB3460026202FA4BF5E464FF0000BDB
:100360005BEA060C08BF4FF0010B19EB0B09ABFB66
:10037000027C48EB0608C01B06FB02CC0BFB03CC3F
:1003800071EB0C01C1E70B46024641464846BDE809
:10039000F08B13B54FF000004FF00001AFF3008079
:1003A000BDE81C4070474FF0000200B5134694466C
:1003B0009646203922BFA0E80C50A0E80C50B1F1BD
:1003C0002001BFF4F7AF090728BFA0E80C5048BFD1
:1003D0000CC05DF804EB890028BF40F8042B08BF6F
:1003E000704748BF20F8022B11F0804F18BF00F86B
:1003F000012B704770477047704710B500F008F840
:10040000006810BD10B5044600F002F8046010BD8D
:1004100000487047B801002000487047B80100202C
:100420007546FFF7F9FFAE4605006946534620F0D2
:100430000700854618B020B5FFF72CFFBDE8204027
:100440004FF000064FF000074FF000084FF0000B90
:1004500021F00701AC46ACE8C009ACE8C009ACE843
:10046000C009ACE8C0098D46704710B50446AFF32B
:1004700000802046BDE81040FFF7F7BE0149182074
:10048000ABBEFEE726000200704700002DE9F041F8
:10049000044600270D46006802F07BF906462068F6
:1004A00002F073F930435DD02068C1682E4E890197
:1004B00005D5617F012902D1217F01290BD0022DB1
:1004C0001DD0206802F065F9B8B120688168C1F3D9
:1004D000400169B111E00125244902E08F4232D286
:1004E0007F1C0268D2435206F8D440210160E8E73D
:1004F0008168314041F010018160012D11D02068E8
:1005000002F043F948B120688168C1F3400121B984
:100510008168314041F020018160022D08D0032D17
:1005200004D0042500F03CFF064617E00C25F9E74F
:100530000825F7E700F034FF801B05280ED9206856
:10054000806828420AD0E06D40F01000E065206E1F
:1005500040F0010020660120BDE8F081206880683D
:100560002842E7D10020F7E7C0FFFF7F000040A34B
:1005700070B50446006881688268C1F3400112F0DA
:10058000010F28D039BB816801F00D01012914D178
:100590008168124A1140891C81602168032008602B
:1005A00000F0FEFE054612E000F0FAFE401B0228B5
:1005B0000DD920688068C00709D0E06D40F01000B8
:1005C000E065206E40F001002066012070BD2068CB
:1005D0008068C007E8D1002070BD0000C0FFFF7F29
:1005E000F8B50446002000902068816811F0010FE2
:1005F00041D18168214A11422ED18168D5432940D9
:10060000491C81601E48806800F0E07000020DD532
:100610001C481D490068B0FBF1F0401C00EB400095
:10062000800000E0401E00900028FBD100F0B8FEE2
:1006300006461BE0816811F0010F03D18168294053
:10064000491C816000F0ACFE801B02280ED9206896
:100650000068C043C00709D0E06D40F01000E065BD
:10066000206E40F0010020660120F8BD206801687E
:10067000C943C907DED10020F8BD00003F0000805B
:100680000003005014000020400D0300FEE70000AE
:1006900010B518B14FF6FF71884202D39FED130ACF
:1006A00010BD00EE100A9FED121ADFED120AB8EE2F
:1006B000400A60EE011A00EE100AB8EE400A30EE71
:1006C000C00AC1EE800A80EE810A02F00BFF9FEDA6
:1006D0000A1ADFED0A0A40EE010AB7EE001A81EEAF
:1006E000200ADFED070A30EE600A10BD0000C6C226
:1006F00000401C4600FF7F472CBB84390FCF5B3B7B
:1007000033938843704772B6FEE70000F8B50026C1
:100710000446009690F858000D4601280BD00120A1
:1007200084F858002046FFF723FF0100E06D04D055
:1007300040F010002AE00220F8BD20F4885040F07C
:100740000200E06520688268134B1A4005F0804380
:100750001A4342F000428260104A20680EE0009B7B
:100760005B1C0093934209D3E06D20F0020040F03F
:100770001000E06584F858600120F8BD8368DB0F45
:10078000EDD1E06D20F0020040F00100E06584F85A
:1007900058600846F8BD0000C0FFFF3F02DE0400BD
:1007A0002DE9F047044690F858009CB00E464FF0F3
:1007B0000009012815D0012084F85800002517955C
:1007C000189520684FF0A04840450ED1284F00975B
:1007D000384601F0E2FF8246206801F0DEFF60B19A
:1007E0000EE002201CB0BDE8F087E06D40F0200074
:1007F000E06584F858500120F4E7BAF1000F09D001
:10080000E06D40F02000E0654FF0010984F8585099
:100810004846E7E71748326840F61F71002A8268A9
:1008200022F4604216D094F8383042EA43327368BA
:100830001A438260D8F80820BB6802F0010203F076
:1008400001031A43E2D1B36832681A4383688B43C9
:100850001A430BE08260D8F80820BB6802F001025E
:1008600003F001031A43D1D182688A438260CDE745
:1008700000010050000300502DE9F84F0027044606
:10088000009790F85800DFF8E0930D46B84601282D
:1008900011D0012684F85860206801F07AFF60B119
:1008A000E06D40F02000E0655FF0010784F85880BB
:1008B0003846BDE8F88F0220FBE7D5E900210C237C
:1008C000206803EA91131844036B01F01F014FF0F5
:1008D0001F0C0CFA01FCC2F3846223EA0C038A4069
:1008E00013430363206801F054FF8246206801F03F
:1008F0004CFF5AEA00003CD1AA6829682068B2F18E
:10090000004F37D001F055FF2068416921F00041C8
:10091000416120686969C268C2F3C1025200914016
:100920002A69042A31D000EB82002B68026EDFF8BE
:100930003CC303F0F84302EA0C020B431A4342F0B3
:100940000041016620682A69A96900EB8200026EF5
:1009500022F080720A430266297F226828690129F1
:1009600010D0002102EB8000026E22F000720A43D8
:1009700002667DE0002201F01CFF2068416941F021
:100980000041C5E74FF00071ECE7002101F0F7FEF0
:10099000400320684FF0000172D001F0F0FE90FAA1
:1009A000A0F0B0FA80F1286842036ED090FAA0F06F
:1009B000B0FA80F0814204D100221146206801F093
:1009C00007FF0121206801F0DAFE400320684FF0A4
:1009D00001015DD001F0D3FE90FAA0F0B0FA80F1F1
:1009E0002868420359D090FAA0F0B0FA80F0814212
:1009F00004D100220121206801F0EAFE02212068D2
:100A000001F0BDFE400320684FF0020148D001F024
:100A1000B6FE90FAA0F0B0FA80F12868420344D004
:100A200090FAA0F0B0FA80F0814204D100220221B5
:100A3000206801F0CDFE0321206801F0A0FE4003F4
:100A400020684FF0030133D001F099FE90FAA0F036
:100A5000B0FA80F1286842032FD090FAA0F0B0FAE3
:100A600080F0814204D100220321206801F0B0FE11
:100A70002068816811F0010F22D0ACE000E004E0B2
:100A800001F07DFEC0F384618DE7C0F3846091E7DF
:100A900001F075FEC0F38461A2E7C0F38460A6E7AD
:100AA00001F06DFEC0F38461B7E7C0F38460BBE77B
:100AB00001F065FEC0F38461CCE7C0F38460D0E749
:100AC0002A7B296850F8B03FC1F3120C23EA0C03CB
:100AD00002F0180C664A22FA0CF20A401343036033
:100AE000E968494577D1286841031CD090FAA0F104
:100AF000B1FA81F1491C01F01F0109294FEA403187
:100B000032D8002912D000BF90FAA0F1B1FA81F1D9
:100B100001F1010101F01F0106FA01F609D100BF40
:100B2000C0F3846109E0C0F38461E3E7C0F384614A
:100B3000EEE790FAA0F1B1FA81F101F1010101F0C3
:100B40001F0146EA816102D1C0F3846003E090FA9C
:100B5000A0F0B0FA80F000F1010000F01F0000EBFF
:100B6000400041EA005132E000290ED090FAA0F195
:100B7000B1FA81F101F1010101F01F0106FA01F65C
:100B800006D100BFC0F3846106E0C0F38461F1E7E1
:100B900090FAA0F1B1FA81F101F1010101F01F0118
:100BA00046EA816102D1C0F3846003E090FAA0F0CC
:100BB000B0FA80F000F1010000F01F002D4A00EBB8
:100BC000400002EB005041EA000141F00071AA68C8
:100BD000206801F0EEFD28482A6802423FF466AE24
:100BE00026488168264B01F0E0719A4202D0254BDD
:100BF0009A421CD10B021AD42268B2F1A04F7FF4A2
:100C000055AE826841F4000122F0E0720A4382602E
:100C10001D481E490068B0FBF1F0401C00EB40008D
:100C2000800000E0401E00900028FBD13EE6184DF9
:100C3000184BAA4207D1CD0105D422689A42F5D0BB
:100C400041F0807109E0144DAA42EFD14A02EDD47F
:100C500022689A42EAD041F48001826822F0E07270
:100C60000A43826022E6000000007F4000F0FF039C
:100C7000FFFF0700000020FE000008800003005076
:100C8000000021C31000C09014000020400D03009C
:100C9000000052C700010050000084CB0068006CC7
:100CA00070470000F8B54FF0000504002E4600958F
:100CB00002D0E06D10B107E00120F8BD204600F041
:100CC000EBF8266684F8586020688168C1F34071AB
:100CD00019B18168684A1140816020688168C1F358
:100CE000007189B98168654A114041F08051816085
:100CF000634864490068B0FBF1F04000801C00E0EC
:100D0000401E00900028FBD120688168C1F300716B
:100D100041B9E16D41F01001E165216E41F0010141
:100D20002166012501F035FDE16DC90600D430B121
:100D3000E06D40F01000E06501252846F8BDE06D4B
:100D400020F4807040F00200E0652068806810F0B8
:100D5000010F11D14FF0A04080684B4900F0010015
:100D6000896801F00101084306D14848616882683A
:100D700022F47C120A438260E168E06B627F0843E0
:100D8000A16841EA4231084394F8241040EA014046
:100D9000012904D1218D3E4A02EB41410843E16A19
:100DA00029B101F47871226B014342EA0100226803
:100DB000D168384B19400143D16020680169626BEA
:100DC00021F0406111430161206801F0DEFC70BB3D
:100DD000207F94F83810800340EA41022168C868F7
:100DE00044F2020398431043C86020690028206839
:100DF00001690AD041F480310161206850F8C01FB8
:100E000022696FF30D01114307E021F48031016184
:100E1000206850F8C01F6FF30D01016094F8400086
:100E200001280CD02068016921F00101016160698D
:100E300001282068016B21F00F0111D013E0D4E9E3
:100E400011010843D4E913121143084321680A69C8
:100E500040F2FC739A43104340F001000861E6E75A
:100E6000226A521E11430163E06D20F0020040F03F
:100E70000100E06561E70000C0FFFF5FC0FFFF7F8A
:100E800014000020400D030000010050000300503A
:100E90000000FEFF0740F0FF10B598B00446142193
:100EA00011A8FFF780FA44216846FFF77CFA206812
:100EB000B0F1A04F26D14FF40040009080030F9076
:100EC000684600F061FC08B1FFF71DFC0E48C16CDC
:100ED00041F40051C164C16C01F400511691C16C20
:100EE00041F00101C164C06C11A900F0010016902D
:100EF0000120119003201290002013904FF0904099
:100F000000F02EF918B010BD001002402DE9F0419C
:100F100004463B480F46816801F01F05A169082976
:100F20000FD085B1052D0ED0092D0CD0806800F4AE
:100F3000604060B1E06D40F02000E0650120BDE858
:100F4000F081082604E02068C068C007F1E70426A5
:100F500000F026FA804615E0781C13D000F020FA45
:100F6000A0EB0800B84200D867B92068006830429A
:100F700008D1E06D40F00400E065002084F85800DE
:100F80000320DCE7206800683042E5D0E06D40F4E3
:100F90000070E065206801F004FC80B1607F70B9EA
:100FA0002068006800070AD5E06D20F48070E065D5
:100FB000E06DC00403D4E06D40F00100E065114A2B
:100FC00020684FF0A041904201D10B4600E003465B
:100FD000834210D07DB1052D0DD0092D0BD090424C
:100FE00000D00146C968082E07D0490401D40C215D
:100FF00001600020A3E7C168F5E70821F8E70000D9
:1010000000030050000100502DE9F041044638482B
:10101000806800F01F05206801F0BBFB18B10221B9
:101020000846BDE8F08194F8580001280CD0012052
:1010300084F858002046FFF7D3FA01004FF0000370
:1010400004D084F85830EBE70220EAE7E06D40F680
:101050000162904340F48070E065264A20684FF0BA
:10106000A046904201D1374600E00746874200D0B3
:101070001DB9E76D27F48017E765E76DFF0404D518
:10108000276E27F00607276600E023661C27076007
:1010900084F858302068904201D1334600E003467E
:1010A000834215D0A5B1052D12D0092D10D0E36DC6
:1010B00043F48013E365904200D13046C06880015C
:1010C000AED5E06D20F4005040F48050E065A7E715
:1010D000C268920105D5E26D22F4005242F48052BA
:1010E000E2658268044B1A40121D826098E7000096
:1010F0000003005000010050C0FFFF7F10B5044600
:1011000090F85800012808D0012084F858000321E5
:101110002046FFF7BBF910B10BE0022010BD2046BE
:10112000FFF726FA28B9E16D21F4885141F0010159
:10113000E165002184F8581010BD000070B5044628
:1011400000F02EF90546601C02D0044840680444B3
:1011500000F026F9401BA042FAD370BD0800002021
:101160002DE9F04FDFF80C92002301260325A9F1A9
:10117000040B85B00F2709F1040AABF1040EF1E06E
:1011800006FA03FC12EA0C027ED00C7904F0030488
:10119000012C01D0022C20D1846800945C0005FA57
:1011A00004F80494009C24EA08040094D1F80C800C
:1011B000049C08FA04F8009C48EA0408C0F8088077
:1011C000446824EA0C0491F804C0CCF3001C0CFA27
:1011D00003FC4CEA040CC0F804C00C79E443A407F7
:1011E00002D18C68012C0ED0C4684FEA430805FA7E
:1011F00008FC24EA0C04D1F808C00CFA08FC4CEAFC
:10120000040CC0F80CC00C7904F00304022C16D1B5
:10121000DC0800EB840CCDF808C0DCF820C05C07CB
:101220004FEAD46807FA08F42CEA040C0C6904FAB3
:1012300008F444EA0C04DDF808C0CCF82040046847
:101240004FEA430805FA08FC24EA0C0491F804C0AC
:101250000CF0030C0CFA08FC4CEA040CC0F800C0BB
:101260004C6814F4403F7CD0434CD4F860C04CF040
:10127000010CC4F860C0246E23F0030C04F00104D8
:1012800000943E4C644400E06BE00294A4684FEA92
:10129000837C4FEA1C7807FA08FC24EA0C04B0F1BE
:1012A000904F06D0DFF8D8C0604505D14FF0010C53
:1012B00020E04FF0000C1DE0DFF8C8C0604502D10F
:1012C0004FF0020C16E0DFF8C0C0604502D14FF0CD
:1012D000030C0FE0DFF8B4C0604502D14FF0040CFE
:1012E00008E0DFF8ACC0604502D14FF0050C01E02A
:1012F0004FF0060C0CFA08FC4CEA040C029CC4F8F3
:1013000008C0D9F80040CC46D1F8048094435FEA85
:10131000C82800D51443CCF80040DAF80040D44681
:10132000D1F8048094435FEA882800D51443CCF8B0
:101330000040DBF80040DC46D1F8048094435FEACB
:10134000883800D51443CCF80040DEF80040F4465D
:10135000D1F8048094435FEAC83800D51443CCF830
:1013600000405B1C0C682246DC407FF409AF05B0EE
:10137000BDE8F08F08040140001002400000014069
:101380000004004800080048000C00480010004815
:10139000001400480AB18161704781627047000003
:1013A00001488068704700000800002090F8412044
:1013B000202A24D190F84020012A20D0012280F850
:1013C0004020242280F841200268136823F00103A2
:1013D00013600268136823F4805313600268136873
:1013E0000B43136001680A6842F001020A60202181
:1013F00080F84110002180F8401008467047022014
:10140000704790F84120202A22D190F84020012AEC
:101410001ED0012280F84020242280F8412002685A
:10142000136823F0010313600268136823F47063E8
:1014300043EA0121116001680A6842F001020A6072
:10144000202180F84110002180F8401008467047A4
:101450000220704770B5040004D094F841000025C4
:1014600010B106E0012070BD84F84050204600F025
:101470004FF8242084F841002068016821F0010120
:1014800001606068216820F07060086120688168F0
:1014900021F400418160E0680128A06830D040F468
:1014A000044021688860E0680228206841682AD0EA
:1014B00021F40061416020684168144A1143416091
:1014C0002068C16821F40041C160D4E904010843E7
:1014D000A16940EA01202168C860D4E907010843F6
:1014E000216808602068016841F0010101606564BD
:1014F000202084F84100256384F84250002070BD0C
:1015000040F40040CDE741F40061D3E700800002E1
:10151000F0B597B00446142111A8FEF744FF44210A
:101520006846FEF740FF20492068884239D14020B4
:10153000002500900695684600F026F908B1FFF7EF
:10154000E2F81A4CE06C40F00100E064E06C00F05E
:1015500001001690E06C40F00200E064E06C12269E
:1015600000F00200169004274FF40040CDE9126508
:10157000CDE91457119011A9B006FFF7F1FD8020B5
:10158000CDE91265CDE91457119011A90848FFF76C
:10159000E7FDA06D40F40010A065A06D00F4001000
:1015A000169017B0F0BD000000540040001002403B
:1015B0000004004802488168426811448160704715
:1015C0000800002010B50024032000F065F80F206B
:1015D00000F008F808B1012401E000F025F82046E9
:1015E00010BD000070B50E4E05460024706898B11D
:1015F0004FF47A71B1FBF0F00A490968B1FBF0F0E1
:1016000000F050FD40B9102D06D200222946501E90
:1016100000F022F8356000E00124204670BD000093
:1016200008000020140000200A4882B0016E41F03A
:1016300001010166016E01F001010091816D41F02F
:1016400080518165806D00F08050009002B000F004
:1016500093B8000000100240F0B40E4B1B680C461B
:10166000C3F30223C3F10705042D00D90425191D76
:10167000072901D2002300E0DB1E012606FA05F14E
:10168000491E214099409E40761E16403143F0BCD1
:1016900001F017BF0CED00E0064900F007020868F2
:1016A0004FF6FF03184040EA0220034A1043086047
:1016B000704700000CED00E00000FA052B492C4BB0
:1016C0000A6832214A432B4940B1B0F5007F0868CF
:1016D00029D020F4C06040F480602CE00868C0F39A
:1016E0004120022804D051F8800F20F4807022E0BD
:1016F000D1F8800020F48070C1F88000086820F4E0
:10170000C06040F400700860B2FBF3F0401C00E0E1
:10171000401E4A69520501D50028F9D148694005A3
:101720000AD503207047C0F34120022806D051F8A3
:10173000800F40F48070086000207047D1F880006E
:1017400040F48070C1F88000086820F4C06040F464
:1017500000700860B2FBF3F0401C00E0401E4A69D4
:101760005205DBD50028F9D1D8E70000140000208D
:1017700040420F00007000400248816841F48041FF
:1017800081607047007000402DE9F843044600680E
:1017900000269D4D00035ED5A86D0027C00008D42B
:1017A000A86D40F08050A865A86D012700F080501A
:1017B0000090DFF85892D9F8001041F48071C9F810
:1017C0000010FFF7EDFD804606E000BFFFF7E8FDE3
:1017D000A0EB080002282BD8D9F80000C005F5D5E9
:1017E000D5F8900010F4407014D0216C814211D0D3
:1017F000D5F89000D5F8901020F4407041F4803175
:10180000C5F89010D5F8901021F48031C5F89010EB
:10181000C5F89000C00711D0FFF7C2FD804641F225
:10182000883907E0FFF7BCFDA0EB0801494501D965
:1018300003260BE0D5F890008007F3D5D5F890008B
:10184000216C20F440700843C5F890001FB1A86DCA
:1018500020F08050A8652078C00707D0D5F8880010
:10186000616820F003000843C5F8880020788007ED
:1018700007D5D5F88800A16820F00C000843C5F80A
:1018800088002078400707D5D5F88800E16820F067
:1018900030000843C5F888002078000707D5D5F840
:1018A0008800216920F0C0000843C5F8880020782E
:1018B000800607D5D5F88800616920F440600843A8
:1018C000C5F888002078400607D5D5F88800A169BA
:1018D00020F440500843C5F888002078000607D55A
:1018E000D5F88800E16920F440400843C5F8880035
:1018F0002088C00507D5D5F88800216A20F440303B
:101900000843C5F888002088800507D5D5F88800E9
:10191000616A20F440200843C5F88800208840050B
:101920000FD5D5F88800A16A20F440100843C5F807
:101930008800A06AB0F5801F03D1E86840F48010E9
:10194000E860208800050FD5D5F88800E16A20F40A
:1019500040000843C5F88800E06AB0F5800F03D165
:10196000E86840F48010E8602088C0040FD5D5F8FE
:101970008800216B20F040700843C5F88800206B78
:10198000B0F1807F03D1E86840F48010E8602088DF
:101990004FF0006180040ED5D5F88800626B20F00E
:1019A00040601043C5F88800606B884203D1E86846
:1019B00040F48010E860208840040ED5D5F88800F7
:1019C000A26B20F040601043C5F88800A06B8842ED
:1019D00003D1E86840F48010E860208800040FD547
:1019E000D5F88800E16B20F040500843C5F8880026
:1019F000E06BB0F1805F03D1E86840F48030E860CC
:101A00003046BDE8F883000000100240007000403E
:101A10002DE9F0470E4605004FF0000725D0DFF80E
:101A2000AC81D8F8000000F00F00B0420CD2D8F81A
:101A3000001021F00F013143C8F80010D8F8000061
:101A400000F00F00B04210D12968614CC80741F284
:101A5000883A5AD06868DFF87C91032808D00228B9
:101A600020682DD0400500282CDB0120BDE8F08740
:101A700020688001F9D5E06800F00302E068C0F357
:101A80000310401C032A19D0534A00BFB2FBF0F0E8
:101A9000E268C2F306225043E268C2F34162521C7C
:101AA0005200B0FBF2F0484517D9A06810F0F00FD3
:101AB0000CD0880711D5A86840B10EE0474AE5E789
:101AC0008003D0E700F0B6F8484506D9A06820F0BA
:101AD000F00040F08000A0608027A068696820F0D6
:101AE00003000843A060FFF75BFC814606E000BFEF
:101AF000FFF756FCA0EB090151453AD8A068696888
:101B000000F00C00B0EB810FF2D12868810714D5EA
:101B1000400703D5A06840F4E060A0602878000783
:101B200005D5A06820F4605040F4E060A060A06893
:101B3000A96820F0F000084304E0802F03D1A068DA
:101B400020F0F000A060D8F80010404601F00F012E
:101B5000B14216D9016821F00F0131430160FFF74E
:101B60001FFC074607E000BFFFF71AFCC11B5145E9
:101B700001D903207AE7D8F8000000F00F00B04246
:101B8000F2D12878400705D5A068E96820F4E06024
:101B90000843A0602878000706D5A068296920F4CA
:101BA000605040EAC100A06000F044F8A1680C4A0F
:101BB000C1F30311515C01F01F01C84009490860DD
:101BC00009480068BDE8F047FFF70CBD002002405F
:101BD0000010024000B4C4040024F40000127A0093
:101BE0002E37000814000020080000200548064990
:101BF00000688968054AC1F30221515C01F01F01A8
:101C0000C840704714000020001002403E37000812
:101C10000548064900688968054AC1F3C221515C3C
:101C200001F01F01C840704714000020001002405E
:101C30003E370008184910B58868C0F3810217487C
:101C4000012A0BD08A684310C2F38102022A06D00F
:101C50008A68C2F38102032A03D0002010BD18460F
:101C600010BDCA6802F00304CA68C2F30312521C12
:101C7000032C02D0B0FBF2F001E0B3FBF2F0CA6833
:101C8000C968C2F306225043C1F34161491C4900AF
:101C9000B0FBF1F010BD0000001002400024F40081
:101CA0002DE9F84304007AD02078F84DC00747D0DA
:101CB000A868E96800F00C0001F003010C2802D0CC
:101CC000082817D001E0032914D06068B0F5803FE0
:101CD00017D0B0F5A02F286817D020F480302860E6
:101CE000286820F4802028606068E0B1FFF758FB86
:101CF000064614E02868800322D560680028D2D008
:101D00001EE0286840F48030EDE740F48020286031
:101D1000F7E700BFFFF744FB801B642870D82868F2
:101D20008003F7D50CE0FFF73BFB064605E000BF5C
:101D3000FFF736FB801B6428F0D828688003F7D4AF
:101D4000207880074CD5A868E96800F00C0001F005
:101D500003010C2802D004280DD001E002290AD08A
:101D6000E068002828682BD040F480702860FFF7D6
:101D700017FB064619E02868400502D5E0680028F0
:101D800091D06868217C20F0FE4040EA01606860E4
:101D9000BF480068FFF726FC002800D120E072E170
:101DA000FFF7FEFA801B0228B8D828684005F7D54F
:101DB0006868217C20F0FE4040EA016068600FE026
:101DC00020F480702860FFF7EBFA064605E000BFBC
:101DD000FFF7E6FA801B0228A0D828684005F7D450
:101DE0002078000729D560690028D5F8940013D021
:101DF00040F00100C5F89400FFF7D2FA064606E06D
:101E000090E000BFFFF7CCFA801B022886D8D5F8F7
:101E100094008007F6D510E020F00100C5F894008A
:101E2000FFF7BEFA064604E0FFF7BAFA801B022865
:101E300078D8D5F894008007F6D42078400761D58B
:101E4000A86D0026C00008D4A86D40F08050A86599
:101E5000A86D012600F0805000908E480168C905E9
:101E600011D40168804641F480710160FFF798FA4F
:101E7000074604E0FFF794FAC01B022852D8D8F8AE
:101E80000000C005F6D5A068012815D00528D5F8B2
:101E9000900016D020F00100C5F89000D5F8900011
:101EA00020F00400C5F89000A06841F28838B8B16D
:101EB000FFF776FA07460EE0D5F8900040F00100F3
:101EC000F0E740F00400C5F89000F5E7FFF768FA86
:101ED000C11B414526D8D5F890008007F6D50CE007
:101EE000FFF75EFA074604E0FFF75AFAC11B4145C7
:101EF00018D8D5F890008007F6D41EB1A86D20F050
:101F00008050A8652078800629D5A0690028D5F8DA
:101F1000980013D040F00100C5F89800FFF740FA90
:101F2000064606E075E000BFFFF73AFA801B02287C
:101F30006FD8D5F898008007F6D510E020F00100A2
:101F4000C5F89800FFF72CFA064604E0FFF728FAD8
:101F5000801B02285DD8D5F898008007F6D4E06988
:101F6000F0B3A968C1F3810103295DD00228286874
:101F700020F08070286003D0FFF712FA04464BE08F
:101F8000FFF70EFA064604E0FFF70AFA801B022864
:101F90003FD828688001F7D4F4E908016FF00F02F8
:101FA00002EB01110843218A5204490802EB415116
:101FB000A26841EA02210843217D4FF07E42490890
:101FC00002EB41610843217B40EAC160E968324A83
:101FD00011400843E860286840F08070286000E005
:101FE0005EE0E86840F08070E860FFF7D9F90446E9
:101FF00005E000BFFFF7D4F9001B022809D82868C4
:102000008001F7D54CE000BFFFF7CAF9001B02289A
:1020100002D90320BDE8F88328688001F4D4E86879
:102020001E490840E8603BE00128F3D0E868226AD6
:1020300000F00301914226D1616A00F0F00209012B
:10204000103991421FD1A26A00F4FE41B1EB022F78
:1020500019D194F82C2000F07841B1EBC26F12D165
:10206000218E00F4C00249084905A1F500119142F2
:1020700009D194F8341000F0C06049084906A1F174
:10208000007181420CD00120C4E700000010024022
:1020900008000020007000400C809F01FCFFEEFE55
:1020A0000020B7E710B5401EB0F1807F01D30120BA
:1020B00010BD4FF0E02460610F21601701F001FABC
:1020C0000020A06107202061002010BDF0B590F82D
:1020D0003C20012A3AD0012580F83C50022280F8A9
:1020E0003D2003685A689C68194E1A4FB34201D0CC
:1020F000BB4204D122F4700C4A6842EA0C02DFF8B9
:1021000058C002EA0C02D1F800C04CEA020CC3F835
:1021100004C00268B2420DD0B2F1804F0AD00F4B1A
:102120009A4207D00E4B9A4204D0BA4202D00D4BCD
:102130009A4204D1896824F080031943916080F8A1
:102140003D50002180F83C100846F0BD0220F0BD53
:10215000002C0140003401408FFFFFFD00040040CF
:10216000000800400040014010B5040003D094F87E
:102170003D0010B107E0012010BD002084F83C00B4
:10218000204600F023F8022084F83D00211D20683D
:1021900000F0A0FC012084F8480084F83E0084F898
:1021A0003F0084F8400084F8410084F8420084F83D
:1021B000430084F8440084F8450084F8460084F81D
:1021C000470084F83D00002010BD000008B50068FD
:1021D000B0F1804F08D10548816D41F00101816562
:1021E000806D00F00100009008BD0000001002406A
:1021F00070B5044690F83C000025012814D0012653
:1022000084F83C60022084F83D0022689068364BD8
:10221000184020F47F409060086870282ED010DCB1
:1022200010F00F0F03D021E04FF0020070BD4FEA15
:102230002012072A1AD2DFE802F0525252524A38CC
:1022400040002A4BC21A984249D009DCB0F5805FA1
:102250000DD0B0F5005F1CD0B0F1101F06D13EE0EC
:10226000102A3CD0202A3AD0502A38D0012584F8B0
:102270003D60002084F83C00284670BDCB68D1E961
:102280000121206800F08FFC2068816841F077010F
:1022900009E0CB68D1E90121206800F084FC2068C6
:1022A000816841F480418160E1E7CA68496820683B
:1022B00000F02EFE5021206806E0CA6849682068B8
:1022C00000F054FE6021206800F078FCCFE7CA6877
:1022D0004968206800F01CFE40212068F4E722686D
:1022E00001461046F0E7000088FFCEFF20001000F6
:1022F00010B586B0044614216846FEF754F82068ED
:10230000B0F1804F16D10C48C16C41F00101C1649D
:10231000C06C694600F0010005900C20009002207E
:102320000190002002900390012004904FF0904013
:10233000FEF716FF06B010BD0010024070B504464F
:1023400090F83C0000260D4601280BD0012084F8AF
:102350003C000C2A4AD007DC82B1042A20D0082A8B
:1023600006D131E0022070BD102A53D0142A63D068
:102370000126002084F83C00304670BD206800F043
:1023800027FC2068816941F008018161206881692A
:1023900021F004018161206881692A69114311E0FB
:1023A000206800F067FC2068816941F40061816168
:1023B0002068816921F480618161206881692A69CE
:1023C00041EA02218161D4E7206800F09DFC206889
:1023D000C16941F00801C1612068C16921F00401AF
:1023E000C1612068C1692A69114311E0206800F0C9
:1023F000D5FC2068C16941F40061C1612068C169F0
:1024000021F48061C1612068C1692A6941EA022121
:10241000C161AEE7206800F00BFD2068016D41F05E
:10242000080101652068016D21F004010165206843
:10243000016D2A69114311E0206800F031FD206828
:10244000016D41F4006101652068016D21F4806136
:1024500001652068016D2A6941EA0221016588E76A
:1024600010B5040003D094F83D0010B107E001203E
:1024700010BD002084F83C00204600F022F8022025
:1024800084F83D00211D206800F024FB012084F821
:10249000480084F83E0084F83F0084F8400084F847
:1024A000410084F8420084F8430084F8440084F832
:1024B000450084F8460084F8470084F83D00002079
:1024C00010BD704730B50446022269B1042912D00C
:1024D000082917D00C291CD0102921D094F84300CA
:1024E000012824D0012030BD94F83E000128F9D104
:1024F00084F83E201DE094F83F000128F2D184F8D2
:102500003F2016E094F840000128EBD184F84020E9
:102510000FE094F841000128E4D184F8412008E05C
:1025200094F842000128DDD184F8422001E084F8CB
:1025300043200122206800F029FB194B206819492B
:10254000194A984209D0884207D0904205D0174DC9
:10255000A84202D0164DA84203D1456C45F400456F
:102560004564206898420CD0B0F1804F09D0114BDF
:10257000984206D0104B984203D0884201D0904236
:1025800007D181680D4A1140062906D0B1F5803F78
:1025900003D0016841F001010160002030BD00005E
:1025A000002C014000340140004001400044014043
:1025B00000480140000400400008004007000100FE
:1025C00090F88410012918D0012180F8841024216A
:1025D000C0F8881001680A680B6823F001030B60DB
:1025E00022F0005100224266036819602021C0F8E1
:1025F000881080F88420104670470220704770B51C
:10260000044690F8840001281DD0012084F884003D
:102610002420C4F8880020680568026822F00102BE
:1026200002602068826822F060620A43826020466D
:1026300000F0BCFC206805602020C4F88800002061
:1026400084F8840070BD022070BD70B5044690F817
:10265000840001281DD0012084F884002420C4F8BF
:10266000880020680568026822F001020260206884
:10267000826822F060420A438260204600F096FCA5
:10268000206805602020C4F88800002084F88400B9
:1026900070BD022070BD10B5040003D0D4F88800CE
:1026A00010B107E0012010BD002084F8840020460E
:1026B00000F026F82420C4F888002068016821F082
:1026C00001010160A06A10B1204600F091FC204693
:1026D00000F072FD0128E6D02068416821F49041A5
:1026E00041602068816821F02A01816020680168CA
:1026F00041F0010101602046BDE8104000F0DCBC63
:1027000010B598B00446142111A8FDF74CFE4421E1
:102710006846FDF748FE17492068884228D1012005
:102720000024CDE900046846FFF72EF808B1FDF754
:10273000EAFF1148016E41F480410166016E01F427
:1027400080411691C16C41F00101C164C06C11A9B6
:1027500000F0010016904FF4C06011900220CDE906
:1027600012040720CDE914404FF09040FEF7F8FC2A
:1027700018B010BD0038014000100240FEE700EB29
:102780008100006E00F0F84070478068C0F3C00020
:1027900070478068C0F3800070478068C0F3800095
:1027A0007047C06810F4406F01D0002070470120CE
:1027B0007047042303EAD15310B518444369C1F3A9
:1027C000045107248C40A3438A401343436110BD46
:1027D00000EB8100016E21F000411143016670475A
:1027E00030B58BB0002408940994202168460A94DF
:1027F000FDF7D9FD1F484FF0A041042501604FF4BB
:102800004031C0E90114C4600461C0E905450477A2
:1028100044770121016280F82440C462046380F897
:102820003840C46380F840101C22426480228264D5
:10283000C0E91341FEF736FA08B1FDF764FF08A9B5
:102840000C480894FDF7ACFF08B1FDF75CFF0A489F
:1028500000900620CDE901047F200594CDE9030511
:1028600069460448FEF708F8002801D0FDF74BFF41
:102870000BB030BD180000200200300410B586B047
:1028800014216846FDF78FFD1648C16C41F0200108
:10289000C164C16C01F020010591C16C41F00101DE
:1028A000C164C16C01F001010591C16C41F00201EC
:1028B000C164C06C4FF0904400F00200059000220B
:1028C00002212046FEF766FD022000900120002133
:1028D000CDE90101039169462046FEF741FC06B0AF
:1028E00010BD000000100240134810B511490160EE
:1028F0001249416000210122C0E9021201614161D7
:102900008161C1610162FEF7A5FD08B1FDF7FBFE23
:1029100000210948FEF74AFD08B1FDF7F4FE002149
:102920000548FEF76EFD002803D0BDE81040FDF716
:10293000EABE10BD00540040840000203612624000
:1029400010B58EB000240794089409940A940B944F
:102950000C941C2168460D94FDF725FD21484FF08D
:10296000804101601021C0E9011440F2F311C0E977
:1029700003148461FFF7F8FB08B1FDF7C4FE4FF4C0
:102980008050079007A91748FFF732FC08B1FDF700
:10299000BAFE1448FFF764FD08B1FDF7B4FE0B94CE
:1029A0000BA910480D94FFF791FB08B1FDF7ABFEA2
:1029B0006020CDE900040294082269460948049485
:1029C000FFF7BCFC08B1FDF79EFE0C2269460548E6
:1029D000FFF7B4FC08B1FDF796FE0248FFF788FC4C
:1029E0000EB010BDD8000020184810B5164901607F
:1029F0004FF4E1314160002181600C22C160C0E9E7
:102A000004128161C161016241628162FFF743FE8C
:102A100008B1FDF778FE00210C48FFF716FE08B15B
:102A2000FDF771FE00210948FFF7E9FD08B1FDF748
:102A30006AFE0648FFF7C4FD002803D0BDE8104039
:102A4000FDF761BE10BD00000038014024010020E8
:102A5000FEE7FEE770477047FEF7ACBD00B593B0E8
:102A600038216846FDF79FFC14210EA8FDF79BFC5A
:102A70000020FEF723FE0220C101039140210491B2
:102A80000421CDE9080100905521CDE90A100790F5
:102A90000C900D906846FFF703F908B172B6FEE797
:102AA0000F200E9003200F90002010901190129094
:102AB00004210EA8FEF7ACFF002801D072B6FEE795
:102AC00013B000BD0248016841F470010160704715
:102AD00088ED00E02DE9F0430268254B254D264E98
:102AE000264C4FF08049984207D0484505D0A8426F
:102AF00003D0B04201D0A04203D122F070074A684F
:102B00003A431F4FDFF87CC0DFF87C8098420DD03D
:102B100048450BD0A84209D0B04207D0A04205D00A
:102B2000B84203D0604501D0404503D122F440753E
:102B3000CA682A434D6922F080022A438D68C56223
:102B40000D688562984207D0A04205D0B84203D0F4
:102B5000604501D0404501D109690163016841F038
:102B600004010160012141610260BDE8F0830000C1
:102B7000002C0140000400400008004000340140E7
:102B800000400140004401400048014010B501F000
:102B90001F030121046A99408C430462016A9A4030
:102BA0001143016210BD10B5846842EA032224F487
:102BB0007F440A432243826010BD00008268034BB9
:102BC0001A400A4342F00701816070478FFFCFFF30
:102BD0002DE9F043056A026A22F0010202624368AD
:102BE00082691E4C25F0020522400C6822F0030287
:102BF00014438A681B4E2A43194D1B4FDFF86CC0E3
:102C0000DFF86C90A84207D0B04205D0B84203D09C
:102C1000604501D048450AD1D0F8208028F004084A
:102C2000C0F8208022F00808CA6842EA0802A842D8
:102C300007D0B04205D0B84203D0604501D0484526
:102C400005D14D6923F440731D438B692B434360C9
:102C50008461496841630262BDE8F0838FFFFEFF33
:102C6000002C01400034014000400140004401407C
:102C700000480140F0B5056A026A22F010020262C3
:102C8000426883691A4C1C4E23400C6823F440733D
:102C900043EA042425F020038D6843EA0513154D0B
:102CA000A84201D0B04208D1076A27F04007076266
:102CB000CF6823F0800343EA0713A8420AD0B0424A
:102CC00008D00E4DA84205D00D4DA84202D00D4DA2
:102CD000A84207D14D6922F4406242EA85028D691B
:102CE00042EA850242608461496881630362F0BD03
:102CF000FF8FFFFE002C01400034014000400140E6
:102D00000044014000480140F0B5056A026A22F41F
:102D1000807202624268C3691A4C1C4E23400C68E0
:102D200023F003031C4325F400738D6843EA052355
:102D3000154DA84201D0B04208D1076A27F4806738
:102D40000762CF6823F4006343EA0723A8420AD04E
:102D5000B04208D00E4DA84205D00E4DA84202D078
:102D60000D4DA84207D14D6922F4405242EA0512A6
:102D70008D6942EA05124260C4614968C163036219
:102D8000F0BD00008FFFFEFF002C01400034014029
:102D9000004001400044014000480140F0B5056A90
:102DA000026A22F4805202624268C3691A4C1C4EC5
:102DB00023400C6823F4407343EA042425F40053B1
:102DC0008D6843EA0533154DA84201D0B04208D1C1
:102DD000076A27F480470762CF6823F4004343EA79
:102DE0000733A8420AD0B04208D00E4DA84205D001
:102DF0000D4DA84202D00D4DA84207D14D6922F4D5
:102E0000404242EA85128D6942EA85124260C461FD
:102E1000496801640362F0BDFF8FFFFE002C014092
:102E2000003401400040014000440140004801409E
:102E300030B5056A026A22F4803202624268036D8C
:102E4000114C23400C681C4325F400330D8943EAE0
:102E500005430E4DA8420BD00D4DA84208D00D4D94
:102E6000A84205D00C4DA84202D00C4DA84204D176
:102E70004D6922F4803242EA0522426004654968C5
:102E80008164036230BD00008FFFFEFF002C014013
:102E9000003401400040014000440140004801402E
:102EA00030B5046A026A22F4801202624268036D3D
:102EB000114D24F400142B400D6843EA05230D89BD
:102EC00044EA05540D4DA8420BD00D4DA84208D040
:102ED0000C4DA84205D00C4DA84202D00B4DA84283
:102EE00004D14D6922F4802242EA852242600365C2
:102EF0004968C164046230BDFF8FFFFE002C0140B1
:102F000000340140004001400044014000480140BD
:102F100010B5036A046A24F0010404620E4CA04256
:102F20000BD00E4CA04208D00D4CA04205D00D4C49
:102F3000A04202D00C4CA04203D1046A24F0040445
:102F40000462846924F0F00444EA021423F00A02C3
:102F50000A438461026210BD002C0140003401402C
:102F600000400140004401400048014010B5036AA0
:102F7000046A24F0100404620A4CA04202D00A4CF5
:102F8000A04203D1046A24F040040462846923F05F
:102F9000A00324F4704444EA023243EA011182613E
:102FA000016210BD002C01400034014030B5416E7B
:102FB000B9B1026891689268C1F342610B4B520F3C
:102FC0009C5CE50003F10804A25CB5FBF2F2A0F8FA
:102FD0006A205A5C615CD200B2FBF1F1A0F8681083
:102FE00030BD0121A0F86A10F8E700001E37000884
:102FF00090F82810090706D501684A68836B22F407
:1030000000421A434A6090F82810C90706D00168A8
:103010004A68C36A22F400321A434A6090F82810C2
:10302000890706D501684A68036B22F480321A4387
:103030004A6090F82810490706D501684A68436B32
:1030400022F480221A434A6090F82810C90606D557
:1030500001688A68C36B22F480521A438A6090F830
:103060002810890606D501688A68036C22F400528C
:103070001A438A6090F82810490611D501684A68F9
:10308000436C22F480121A434A60416CB1F5801FF0
:1030900006D101684A68836C22F4C0021A434A6070
:1030A00090F82810090606D501684A68C06C22F419
:1030B000002202434A6070472DE9F8430026044687
:1030C000C0F89060FEF76CF98046206800684FF009
:1030D000200500076FF07E4713D5434600222904E0
:1030E0002046009700F0A2F958B1216851E8000F7E
:1030F00020F0800041E80002002AF6D1C4F8885090
:1031000021E020680068400722D5434600224FF4A2
:1031100080012046009700F089F9C8B1216851E884
:10312000000F20F4907041E80002002AF6D12068D8
:10313000083050E8001F21F0010140E80012002A89
:10314000F5D1C4F88C5084F884600320BDE8F8837E
:10315000C4F88850C4F88C5044F86C6F66602676CA
:103160000020F3E710B5026852E8001F21F49071C7
:1031700042E80013002BF6D10E4B0268083252E8E9
:10318000001F194042E80014002CF6D1C16E01293D
:1031900008D1016851E8002F22F0100241E8002315
:1031A000002BF6D12021C0F88C100021C1664167A8
:1031B00010BD0000FEFFFFEF2DE9F041044601685D
:1031C00080682269E3691043626900251A4310434D
:1031D000DFF82CC20A688B4B1A4002430A60206851
:1031E0004168E26821F44051114341602168A069BF
:1031F000614501D0226A10438A68834B1A4002431A
:103200008A602068C16A626A21F00F011143C162BD
:103210007E4923687E488B420DD1D0F8880010F09B
:10322000030006D0012855D0022842D003283FD100
:1032300052E001203DE077498B420BD1D0F8880065
:1032400010F00C0035D0042833D0082840D00C28CA
:103250002ED141E070498B420BD1D0F8880010F09C
:10326000300026D0102835D0202831D030281FD16A
:1032700032E06A498B420BD1D0F8880010F0C000D0
:1032800017D0402826D0802822D0C02810D123E093
:1032900063450DD1D0F8880010F4406009D0B0F536
:1032A000806F17D0B0F5006F12D0B0F5406F13D01B
:1032B00010205B495B4F00264FF4004263453BD131
:1032C00060B1022813D004280BD0082872D10DE079
:1032D0000220EEE70420ECE70820EAE7FEF786FC90
:1032E00001E0FEF7A7FC010001D17CE01146606A15
:1032F00037F810206768B1FBF2F007EB4703834211
:1033000070D8B0EB073F6DD8002308461946FCF78C
:10331000D3FF090241EA10610202780810187141D6
:103320003A460023FCF7C8FF3F4AA0F5407191429E
:1033300058D82168C86056E0E3694FF6EF789342A9
:103340002CD109284ED2DFE800F00508114D0D4DB3
:103350004D4D1000FEF74AFC01E0FEF759FC01005C
:1033600004D140E0FEF766FCF9E71146606A37F8E1
:103370001000B1FBF0F04100606801EB5001B1FBBF
:10338000F0F0A0F1100141452CD84FF6F07101404A
:10339000C0F3420001432068C16024E0092821D223
:1033A000DFE800F0050912200E2020201100FEF7B2
:1033B0001DFC02E016E0FEF72BFC010004D112E038
:1033C000FEF738FCF9E71146606A37F81000B1FBE8
:1033D000F0F1606801EB5001B1FBF0F0A0F11001D9
:1033E00041450AD901250120A4F86A0024F8680F94
:1033F0002846E6602661BDE8F08180B299E70000CA
:1034000000800040F369FFCFFFF4FF110038014056
:10341000001002400044004000480040004C0040C2
:103420000024F40006370008FFFC0F002DE9F047E8
:10343000994617460D4604464FF00008089E33E0B3
:10344000701C31D0FDF7ACFFA0EB0900B04218D8DA
:10345000BEB120680168490726D5802D24D0402DB3
:1034600022D0C169C94309070DD408250562204649
:10347000FFF778FEC4F8905084F884800120BDE8FE
:10348000F0870320FBE7C069C04300050CD4216826
:103490004FF4006008622046FFF764FE2020C4F865
:1034A000900084F88480ECE72068C06935EA000069
:1034B00004D00020B842C3D00020E0E70120F9E7A3
:1034C000FEE70907090E002804DB00F1E02080F880
:1034D0000014704700F00F0000F1E02080F8141D88
:1034E0007047000010EE100A10B50023A0F500018F
:1034F000B1F1FE4F67D200BF00F500216FF07E02F0
:1035000002EBE15CC1F302524FF07E5101EB02513C
:1035100000EE901AA0EBCC5003EB0C0100EE100A69
:1035200051EA020036D030EE601A70EE200A9FEDAC
:103530003D2A3E4881EE200A9FED3B1A60EE000ACC
:1035400000EE821A60EE201A61EE810A784401EEE4
:10355000101A00EB82009FED362AB8EEC11AD0EDAA
:10356000001A344841EE021A784401EE101A00EBBA
:103570008200B8EEC11A90ED002ADFED2F2A01EE8D
:10358000222AB0EE001A72EE200A40EE010A31EE55
:10359000A00A10BDF7EE000A9FED291A30EE600A6E
:1035A000DFED260A00EE201ADFED260A60EE001A93
:1035B00040EE010A9FED241A00EE201A61EE810A06
:1035C00030EE200A10BD4FF07F41B1EB400F03D227
:1035D000BDE8104000F046B8B0F1FF4F08BF10BD85
:1035E000B5EEC00AF1EE10FA06D20120FCF70AFF90
:1035F000BDE8104000F03AB8B5EEC00AF1EE10FA9E
:1036000007D10220FCF7FEFE00F022F8B1EE400ADE
:1036100010BDDFED0E0A6FF0160320EE200A10EE4B
:10362000100A69E766F1CC3EAAAA2A3FF801000019
:103630000070313FFC010000F4FD053821ED423EF1
:103640000A1180BEC1ABAA3EFFFFFFBE0000004BC7
:10365000DFED030AB7EE001A81EE200A7047000082
:103660000000000030EE000A70470000DFED020AA3
:1036700080EEA00A7047000000000000FDF7A2FFE6
:10368000FFF7ECF9FFF7FAF8FFF7AAF8FFF758F998
:10369000FFF72AF9FFF7A8F97F211548FDF736F85B
:1036A00008211448FEF70EFF0C211248FEF70AFF0E
:1036B000114D00260F4CFA270D48FDF7A5FC0A21F5
:1036C0000B48FDF723FC38B90948FDF7E7FA2860F5
:1036D000FCF7DEFF85ED010A0548FDF70FFD6420CC
:1036E000FDF72CFD2068C76320680664E4E700004E
:1036F00018000020D8000020000000204FF040708B
:10370000E1EE100A70470100020004000600080004
:103710000A000C00100020004000800000010101A0
:103720000103070100000804020408010101000070
:103730000000000000000102030406070809000061
:103740000000010203040000000000000030F13D11
:103750000070643E0000A33E0090CF3E0090F83E13
:1037600000400F3F00E0203F0000000015B7833706
:10377000CDE37B380EE1C53860F69138AF5F0F3886
:10378000E1BC3E3823F44739A83700080000002088
:103790001800000014020008C037000818000020BC
:1037A00000080000300200080000000000000000D7
:1037B0001000000001000000000000000024F400E0
:04000005080001D915
:00000001FF
